{
  "contracts/GenuinoNameRegistry.sol": {
    "GenuinoNameRegistry": {
      "abi": [
        {
          "inputs": [
            {
              "internalType": "uint32",
              "name": "_timeLockPeriod",
              "type": "uint32"
            },
            {
              "internalType": "uint256",
              "name": "updateInterval",
              "type": "uint256"
            }
          ],
          "stateMutability": "nonpayable",
          "type": "constructor"
        },
        {
          "inputs": [],
          "name": "OnlySimulatedBackend",
          "type": "error"
        },
        {
          "anonymous": false,
          "inputs": [
            {
              "indexed": true,
              "internalType": "address",
              "name": "caller",
              "type": "address"
            },
            {
              "indexed": false,
              "internalType": "uint256",
              "name": "value",
              "type": "uint256"
            }
          ],
          "name": "BalanceWithdwalByNameHolder",
          "type": "event"
        },
        {
          "anonymous": false,
          "inputs": [
            {
              "indexed": true,
              "internalType": "address",
              "name": "caller",
              "type": "address"
            },
            {
              "indexed": false,
              "internalType": "uint256",
              "name": "value",
              "type": "uint256"
            }
          ],
          "name": "BalanceWithdwalFromAccount",
          "type": "event"
        },
        {
          "anonymous": false,
          "inputs": [
            {
              "indexed": true,
              "internalType": "address",
              "name": "caller",
              "type": "address"
            },
            {
              "indexed": true,
              "internalType": "bytes32",
              "name": "name",
              "type": "bytes32"
            },
            {
              "indexed": false,
              "internalType": "uint256",
              "name": "value",
              "type": "uint256"
            }
          ],
          "name": "NameChanged",
          "type": "event"
        },
        {
          "anonymous": false,
          "inputs": [
            {
              "indexed": true,
              "internalType": "address",
              "name": "caller",
              "type": "address"
            },
            {
              "indexed": false,
              "internalType": "string",
              "name": "name",
              "type": "string"
            },
            {
              "indexed": false,
              "internalType": "uint256",
              "name": "value",
              "type": "uint256"
            }
          ],
          "name": "NameRegistered",
          "type": "event"
        },
        {
          "anonymous": false,
          "inputs": [
            {
              "indexed": true,
              "internalType": "address",
              "name": "caller",
              "type": "address"
            },
            {
              "indexed": true,
              "internalType": "bytes32",
              "name": "name",
              "type": "bytes32"
            }
          ],
          "name": "NameRemoval",
          "type": "event"
        },
        {
          "anonymous": false,
          "inputs": [
            {
              "indexed": true,
              "internalType": "address",
              "name": "caller",
              "type": "address"
            },
            {
              "indexed": true,
              "internalType": "bytes32",
              "name": "name",
              "type": "bytes32"
            }
          ],
          "name": "NameUnregistered",
          "type": "event"
        },
        {
          "anonymous": false,
          "inputs": [
            {
              "indexed": false,
              "internalType": "bool",
              "name": "operationalStatus",
              "type": "bool"
            }
          ],
          "name": "Operational",
          "type": "event"
        },
        {
          "anonymous": false,
          "inputs": [
            {
              "indexed": true,
              "internalType": "bytes32",
              "name": "name",
              "type": "bytes32"
            },
            {
              "indexed": false,
              "internalType": "uint256",
              "name": "value",
              "type": "uint256"
            }
          ],
          "name": "Renewal",
          "type": "event"
        },
        {
          "anonymous": false,
          "inputs": [
            {
              "indexed": false,
              "internalType": "uint256",
              "name": "timeLockPeriod",
              "type": "uint256"
            }
          ],
          "name": "SetTimePeriod",
          "type": "event"
        },
        {
          "stateMutability": "payable",
          "type": "fallback"
        },
        {
          "inputs": [
            {
              "internalType": "string",
              "name": "name",
              "type": "string"
            }
          ],
          "name": "calculateregistrationFee",
          "outputs": [
            {
              "internalType": "uint64",
              "name": "",
              "type": "uint64"
            }
          ],
          "stateMutability": "pure",
          "type": "function"
        },
        {
          "inputs": [
            {
              "internalType": "bytes32",
              "name": "_condition",
              "type": "bytes32"
            }
          ],
          "name": "checkFrontRunConditions",
          "outputs": [],
          "stateMutability": "nonpayable",
          "type": "function"
        },
        {
          "inputs": [
            {
              "internalType": "bytes",
              "name": "",
              "type": "bytes"
            }
          ],
          "name": "checkUpkeep",
          "outputs": [
            {
              "internalType": "bool",
              "name": "upkeepNeeded",
              "type": "bool"
            },
            {
              "internalType": "bytes",
              "name": "",
              "type": "bytes"
            }
          ],
          "stateMutability": "view",
          "type": "function"
        },
        {
          "inputs": [
            {
              "internalType": "bytes32",
              "name": "_condition",
              "type": "bytes32"
            }
          ],
          "name": "condition",
          "outputs": [],
          "stateMutability": "nonpayable",
          "type": "function"
        },
        {
          "inputs": [
            {
              "internalType": "string",
              "name": "_name",
              "type": "string"
            },
            {
              "internalType": "bytes32",
              "name": "_key",
              "type": "bytes32"
            }
          ],
          "name": "generateCondition",
          "outputs": [
            {
              "internalType": "bytes32",
              "name": "",
              "type": "bytes32"
            }
          ],
          "stateMutability": "view",
          "type": "function"
        },
        {
          "inputs": [],
          "name": "getContractBalance",
          "outputs": [
            {
              "internalType": "uint256",
              "name": "",
              "type": "uint256"
            }
          ],
          "stateMutability": "view",
          "type": "function"
        },
        {
          "inputs": [],
          "name": "getOperationalStatus",
          "outputs": [
            {
              "internalType": "bool",
              "name": "",
              "type": "bool"
            }
          ],
          "stateMutability": "view",
          "type": "function"
        },
        {
          "inputs": [],
          "name": "interval",
          "outputs": [
            {
              "internalType": "uint256",
              "name": "",
              "type": "uint256"
            }
          ],
          "stateMutability": "view",
          "type": "function"
        },
        {
          "inputs": [
            {
              "internalType": "bytes32",
              "name": "_name",
              "type": "bytes32"
            }
          ],
          "name": "isNameAvailable",
          "outputs": [
            {
              "internalType": "address",
              "name": "",
              "type": "address"
            }
          ],
          "stateMutability": "view",
          "type": "function"
        },
        {
          "inputs": [],
          "name": "lastTimeStamp",
          "outputs": [
            {
              "internalType": "uint256",
              "name": "",
              "type": "uint256"
            }
          ],
          "stateMutability": "view",
          "type": "function"
        },
        {
          "inputs": [],
          "name": "lockValue",
          "outputs": [
            {
              "internalType": "uint256",
              "name": "",
              "type": "uint256"
            }
          ],
          "stateMutability": "view",
          "type": "function"
        },
        {
          "inputs": [
            {
              "internalType": "bytes32",
              "name": "",
              "type": "bytes32"
            }
          ],
          "name": "nameRecord",
          "outputs": [
            {
              "internalType": "address",
              "name": "ownerOfName",
              "type": "address"
            },
            {
              "internalType": "bytes32",
              "name": "name",
              "type": "bytes32"
            },
            {
              "internalType": "uint256",
              "name": "value",
              "type": "uint256"
            },
            {
              "internalType": "uint256",
              "name": "endPeriod",
              "type": "uint256"
            },
            {
              "internalType": "bool",
              "name": "isLocked",
              "type": "bool"
            }
          ],
          "stateMutability": "view",
          "type": "function"
        },
        {
          "inputs": [
            {
              "internalType": "uint256",
              "name": "",
              "type": "uint256"
            }
          ],
          "name": "nameToOwner",
          "outputs": [
            {
              "internalType": "bytes32",
              "name": "",
              "type": "bytes32"
            }
          ],
          "stateMutability": "view",
          "type": "function"
        },
        {
          "inputs": [],
          "name": "owner",
          "outputs": [
            {
              "internalType": "address",
              "name": "",
              "type": "address"
            }
          ],
          "stateMutability": "view",
          "type": "function"
        },
        {
          "inputs": [
            {
              "internalType": "bytes",
              "name": "",
              "type": "bytes"
            }
          ],
          "name": "performUpkeep",
          "outputs": [],
          "stateMutability": "nonpayable",
          "type": "function"
        },
        {
          "inputs": [
            {
              "internalType": "string",
              "name": "_name",
              "type": "string"
            },
            {
              "internalType": "bytes32",
              "name": "_secretKey",
              "type": "bytes32"
            }
          ],
          "name": "registerName",
          "outputs": [],
          "stateMutability": "payable",
          "type": "function"
        },
        {
          "inputs": [
            {
              "internalType": "string",
              "name": "_name",
              "type": "string"
            }
          ],
          "name": "removeName",
          "outputs": [],
          "stateMutability": "nonpayable",
          "type": "function"
        },
        {
          "inputs": [
            {
              "internalType": "string",
              "name": "_name",
              "type": "string"
            }
          ],
          "name": "renewalOfName",
          "outputs": [],
          "stateMutability": "payable",
          "type": "function"
        },
        {
          "inputs": [],
          "name": "resetExpiredNameFromRecord",
          "outputs": [],
          "stateMutability": "nonpayable",
          "type": "function"
        },
        {
          "inputs": [
            {
              "internalType": "bool",
              "name": "_operationalStatus",
              "type": "bool"
            }
          ],
          "name": "setOpeartionalStatus",
          "outputs": [],
          "stateMutability": "nonpayable",
          "type": "function"
        },
        {
          "inputs": [
            {
              "internalType": "uint256",
              "name": "_timeLockPeriod",
              "type": "uint256"
            }
          ],
          "name": "setTimeLockPeriod",
          "outputs": [],
          "stateMutability": "nonpayable",
          "type": "function"
        },
        {
          "inputs": [],
          "name": "timeLockPeriod",
          "outputs": [
            {
              "internalType": "uint256",
              "name": "",
              "type": "uint256"
            }
          ],
          "stateMutability": "view",
          "type": "function"
        },
        {
          "inputs": [
            {
              "internalType": "string",
              "name": "_name",
              "type": "string"
            }
          ],
          "name": "withDrawLockValue",
          "outputs": [],
          "stateMutability": "payable",
          "type": "function"
        },
        {
          "inputs": [],
          "name": "withdrawAccountBalance",
          "outputs": [],
          "stateMutability": "nonpayable",
          "type": "function"
        },
        {
          "stateMutability": "payable",
          "type": "receive"
        }
      ],
      "evm": {
        "bytecode": {
          "linkReferences": {},
          "object": "60a06040526729a2241af62c00006003553480156200001d57600080fd5b5060405162002a6838038062002a68833981810160405281019062000043919062000129565b8163ffffffff1660028190555033600460006101000a81548173ffffffffffffffffffffffffffffffffffffffff021916908373ffffffffffffffffffffffffffffffffffffffff160217905550806080818152505042600081905550505062000170565b600080fd5b600063ffffffff82169050919050565b620000c881620000ad565b8114620000d457600080fd5b50565b600081519050620000e881620000bd565b92915050565b6000819050919050565b6200010381620000ee565b81146200010f57600080fd5b50565b6000815190506200012381620000f8565b92915050565b60008060408385031215620001435762000142620000a8565b5b60006200015385828601620000d7565b9250506020620001668582860162000112565b9150509250929050565b6080516128ce6200019a600039600081816108f901528181610b9501526112df01526128ce6000f3fe60806040526004361061014f5760003560e01c806385ec41cf116100b6578063b194a72c1161006f578063b194a72c1461046d578063cd1388fa14610496578063e6200dc2146104d7578063f0e55533146104ee578063f343081f14610517578063f3e115231461055457610156565b806385ec41cf1461036f5780638648c36b146103865780638da5cb5b146103c35780639303b16f146103ee578063947a36fb14610417578063a94ea5cc1461044257610156565b80636a43aae7116101085780636a43aae71461026d5780636e04ff0d146102965780636f9fb98a146102d457806378446bc1146102ff578063801c72321461032a5780638225af801461035357610156565b80630c9826731461015857806316b9459f146101835780632894d4921461019f5780633f3b3b27146101dc57806341f5947b146102075780634585e33b1461024457610156565b3661015657005b005b34801561016457600080fd5b5061016d610570565b60405161017a919061194b565b60405180910390f35b61019d600480360381019061019891906119df565b610587565b005b3480156101ab57600080fd5b506101c660048036038101906101c19190611ba3565b610875565b6040516101d39190611c0e565b60405180910390f35b3480156101e857600080fd5b506101f16108b1565b6040516101fe9190611c42565b60405180910390f35b34801561021357600080fd5b5061022e60048036038101906102299190611c5d565b6108b7565b60405161023b9190611ccb565b60405180910390f35b34801561025057600080fd5b5061026b60048036038101906102669190611d3c565b6108f7565b005b34801561027957600080fd5b50610294600480360381019061028f91906119df565b610958565b005b3480156102a257600080fd5b506102bd60048036038101906102b89190611d3c565b610b8f565b6040516102cb929190611e11565b60405180910390f35b3480156102e057600080fd5b506102e9610bcc565b6040516102f69190611c42565b60405180910390f35b34801561030b57600080fd5b50610314610bd4565b6040516103219190611c42565b60405180910390f35b34801561033657600080fd5b50610351600480360381019061034c9190611c5d565b610bda565b005b61036d60048036038101906103689190611e41565b610c6f565b005b34801561037b57600080fd5b5061038461105f565b005b34801561039257600080fd5b506103ad60048036038101906103a891906119df565b6111c4565b6040516103ba9190611ec4565b60405180910390f35b3480156103cf57600080fd5b506103d86111e4565b6040516103e59190611ccb565b60405180910390f35b3480156103fa57600080fd5b5061041560048036038101906104109190611f0b565b61120a565b005b34801561042357600080fd5b5061042c6112dd565b6040516104399190611c42565b60405180910390f35b34801561044e57600080fd5b50610457611301565b6040516104649190611c42565b60405180910390f35b34801561047957600080fd5b50610494600480360381019061048f9190611c5d565b611307565b005b3480156104a257600080fd5b506104bd60048036038101906104b89190611c5d565b611396565b6040516104ce959493929190611f38565b60405180910390f35b3480156104e357600080fd5b506104ec6113f9565b005b3480156104fa57600080fd5b5061051560048036038101906105109190611fb7565b6115b3565b005b34801561052357600080fd5b5061053e60048036038101906105399190611f0b565b611697565b60405161054b9190611c0e565b60405180910390f35b61056e600480360381019061056991906119df565b6116bb565b005b6000600460149054906101000a900460ff16905090565b600460149054906101000a900460ff16156105d7576040517f08c379a00000000000000000000000000000000000000000000000000000000081526004016105ce90612041565b60405180910390fd5b600082826040516105e9929190612091565b60405180910390209050600460149054906101000a900460ff1615610643576040517f08c379a000000000000000000000000000000000000000000000000000000000815260040161063a906120f6565b60405180910390fd5b3373ffffffffffffffffffffffffffffffffffffffff166006600083815260200190815260200160002060000160009054906101000a900473ffffffffffffffffffffffffffffffffffffffff1673ffffffffffffffffffffffffffffffffffffffff16146106e7576040517f08c379a00000000000000000000000000000000000000000000000000000000081526004016106de90612162565b60405180910390fd5b6006600082815260200190815260200160002060030154421161073f576040517f08c379a0000000000000000000000000000000000000000000000000000000008152600401610736906121ce565b60405180910390fd5b6006600082815260200190815260200160002060040160009054906101000a900460ff16156107a3576040517f08c379a000000000000000000000000000000000000000000000000000000000815260040161079a90612260565b60405180910390fd5b600060066000838152602001908152602001600020600201549050600060066000848152602001908152602001600020600201819055503373ffffffffffffffffffffffffffffffffffffffff166108fc829081150290604051600060405180830381858888f19350505050158015610820573d6000803e3d6000fd5b503373ffffffffffffffffffffffffffffffffffffffff167f5a87beb49578535fddefc2bdf5d1348ff0ca08cbe4f77c80f55ba5ccd561533f826040516108679190611c42565b60405180910390a250505050565b600082805190602001203383604051602001610893939291906122e9565b60405160208183030381529060405280519060200120905092915050565b60005481565b60006006600083815260200190815260200160002060000160009054906101000a900473ffffffffffffffffffffffffffffffffffffffff169050919050565b7f0000000000000000000000000000000000000000000000000000000000000000600054426109269190612355565b1115610954574260008190555061093b61105f565b6001600081548092919061094e90612389565b91905055505b5050565b600460009054906101000a900473ffffffffffffffffffffffffffffffffffffffff1673ffffffffffffffffffffffffffffffffffffffff163373ffffffffffffffffffffffffffffffffffffffff16146109e8576040517f08c379a00000000000000000000000000000000000000000000000000000000081526004016109df90612443565b60405180910390fd5b600460149054906101000a900460ff1615610a38576040517f08c379a0000000000000000000000000000000000000000000000000000000008152600401610a2f90612041565b60405180910390fd5b60008282604051610a4a929190612091565b604051809103902090507f200000000000000000000000000000000000000000000000000000000000000060066000838152602001908152602001600020600101819055506000600660008381526020019081526020016000206003018190555060006006600083815260200190815260200160002060000160006101000a81548173ffffffffffffffffffffffffffffffffffffffff021916908373ffffffffffffffffffffffffffffffffffffffff16021790555060006006600083815260200190815260200160002060040160006101000a81548160ff02191690831515021790555060066000828152602001908152602001600020600101543373ffffffffffffffffffffffffffffffffffffffff167fe9a8042f02a1c5770c208431e10c1a87d852f7b2c9f45714ff90fd2c9e7a329360405160405180910390a3505050565b600060607f000000000000000000000000000000000000000000000000000000000000000060005442610bc29190612355565b1191509250929050565b600047905090565b60025481565b42610c0c603c67ffffffffffffffff16600760008581526020019081526020016000205461191a90919063ffffffff16565b1115610c1757600080fd5b42610c4b6201518067ffffffffffffffff16600760008581526020019081526020016000205461191a90919063ffffffff16565b11610c5557600080fd5b600760008281526020019081526020016000206000905550565b60008383604051610c81929190612091565b60405180910390209050600073ffffffffffffffffffffffffffffffffffffffff16610cac826108b7565b73ffffffffffffffffffffffffffffffffffffffff1614610d02576040517f08c379a0000000000000000000000000000000000000000000000000000000008152600401610cf9906124d5565b60405180910390fd5b6000610d5285858080601f016020809104026020016040519081016040528093929190818152602001838380828437600081840152601f19601f8201169050808301925050505050505084610875565b9050610d5d81610bda565b6000610d6986866111c4565b67ffffffffffffffff1690506000610d8c8260035461191a90919063ffffffff16565b905080341015610dd1576040517f08c379a0000000000000000000000000000000000000000000000000000000008152600401610dc890612567565b60405180910390fd5b600460149054906101000a900460ff1615610e21576040517f08c379a0000000000000000000000000000000000000000000000000000000008152600401610e1890612041565b60405180910390fd5b6000610e384260025461191a90919063ffffffff16565b90506040518060a001604052803373ffffffffffffffffffffffffffffffffffffffff1681526020018681526020016003548152602001828152602001600115158152506006600087815260200190815260200160002060008201518160000160006101000a81548173ffffffffffffffffffffffffffffffffffffffff021916908373ffffffffffffffffffffffffffffffffffffffff16021790555060208201518160010155604082015181600201556060820151816003015560808201518160040160006101000a81548160ff02191690831515021790555090505060058590806001815401808255809150506001900390600052602060002001600090919091909150553373ffffffffffffffffffffffffffffffffffffffff167fdcc2175a495289b48da3c0c903e6e8fd7bbf9400cc93d7d1b8be780fc5916c668989600354604051610f8c939291906125b4565b60405180910390a2813411156110555760003373ffffffffffffffffffffffffffffffffffffffff168334610fc19190612355565b604051610fcd9061260c565b60006040518083038185875af1925050503d806000811461100a576040519150601f19603f3d011682016040523d82523d6000602084013e61100f565b606091505b5050905080611053576040517f08c379a000000000000000000000000000000000000000000000000000000000815260040161104a9061266d565b60405180910390fd5b505b5050505050505050565b60005b6005805490508110156111c1574260066000600584815481106110885761108761268d565b5b906000526020600020015481526020019081526020016000206003015410156111ae577f200000000000000000000000000000000000000000000000000000000000000060066000600584815481106110e4576110e361268d565b5b90600052602060002001548152602001908152602001600020600101819055506000600660006005848154811061111e5761111d61268d565b5b9060005260206000200154815260200190815260200160002060030181905550600060066000600584815481106111585761115761268d565b5b9060005260206000200154815260200190815260200160002060040160006101000a81548160ff0219169083151502179055506005818154811061119f5761119e61268d565b5b90600052602060002001600090555b80806111b990612389565b915050611062565b50565b6000662386f26fc10000838390506111dc91906126bc565b905092915050565b600460009054906101000a900473ffffffffffffffffffffffffffffffffffffffff1681565b600460009054906101000a900473ffffffffffffffffffffffffffffffffffffffff1673ffffffffffffffffffffffffffffffffffffffff163373ffffffffffffffffffffffffffffffffffffffff161461129a576040517f08c379a000000000000000000000000000000000000000000000000000000000815260040161129190612443565b60405180910390fd5b806002819055507f1e3e70f5e6de3b2bc05175c0c8a4970d959049190bc901bc26b807818ebd84f06002546040516112d29190611c42565b60405180910390a150565b7f000000000000000000000000000000000000000000000000000000000000000081565b60035481565b4261133b6201518067ffffffffffffffff16600760008581526020019081526020016000205461191a90919063ffffffff16565b1061137b576040517f08c379a00000000000000000000000000000000000000000000000000000000081526004016113729061274a565b60405180910390fd5b42600760008381526020019081526020016000208190555050565b60066020528060005260406000206000915090508060000160009054906101000a900473ffffffffffffffffffffffffffffffffffffffff16908060010154908060020154908060030154908060040160009054906101000a900460ff16905085565b600460009054906101000a900473ffffffffffffffffffffffffffffffffffffffff1673ffffffffffffffffffffffffffffffffffffffff163373ffffffffffffffffffffffffffffffffffffffff1614611489576040517f08c379a000000000000000000000000000000000000000000000000000000000815260040161148090612443565b60405180910390fd5b600460149054906101000a900460ff16156114d9576040517f08c379a00000000000000000000000000000000000000000000000000000000081526004016114d090612041565b60405180910390fd5b6000471161151c576040517f08c379a0000000000000000000000000000000000000000000000000000000008152600401611513906127b6565b60405180910390fd5b3373ffffffffffffffffffffffffffffffffffffffff166108fc479081150290604051600060405180830381858888f19350505050158015611562573d6000803e3d6000fd5b503373ffffffffffffffffffffffffffffffffffffffff167f962f9c43e003b8cd7c9d735bac875cd62df9cd05a5c5c2ea3981adba54a7d093476040516115a99190611c42565b60405180910390a2565b600460009054906101000a900473ffffffffffffffffffffffffffffffffffffffff1673ffffffffffffffffffffffffffffffffffffffff163373ffffffffffffffffffffffffffffffffffffffff1614611643576040517f08c379a000000000000000000000000000000000000000000000000000000000815260040161163a90612443565b60405180910390fd5b80600460146101000a81548160ff0219169083151502179055507f70687fde1b5a9227fa0e9609998e1cc36e9901b7a731cc808a8f137fd30a6ae88160405161168c919061194b565b60405180910390a150565b600581815481106116a757600080fd5b906000526020600020016000915090505481565b600082826040516116cd929190612091565b6040518091039020905060006116e384846111c4565b67ffffffffffffffff16905080341015611732576040517f08c379a000000000000000000000000000000000000000000000000000000000815260040161172990612567565b60405180910390fd5b3373ffffffffffffffffffffffffffffffffffffffff166006600084815260200190815260200160002060000160009054906101000a900473ffffffffffffffffffffffffffffffffffffffff1673ffffffffffffffffffffffffffffffffffffffff16146117d6576040517f08c379a00000000000000000000000000000000000000000000000000000000081526004016117cd90612822565b60405180910390fd5b6002546006600084815260200190815260200160002060030160008282546117fe9190612842565b92505081905550817f5fab56e4692bef0cb846328ab44dc5c82cbeab1f825083d2ab108690af108f2f600660008581526020019081526020016000206003015460405161184b9190611c42565b60405180910390a2803411156119145760003373ffffffffffffffffffffffffffffffffffffffff1682346118809190612355565b60405161188c9061260c565b60006040518083038185875af1925050503d80600081146118c9576040519150601f19603f3d011682016040523d82523d6000602084013e6118ce565b606091505b5050905080611912576040517f08c379a00000000000000000000000000000000000000000000000000000000081526004016119099061266d565b60405180910390fd5b505b50505050565b600081836119289190612842565b905092915050565b60008115159050919050565b61194581611930565b82525050565b6000602082019050611960600083018461193c565b92915050565b6000604051905090565b600080fd5b600080fd5b600080fd5b600080fd5b600080fd5b60008083601f84011261199f5761199e61197a565b5b8235905067ffffffffffffffff8111156119bc576119bb61197f565b5b6020830191508360018202830111156119d8576119d7611984565b5b9250929050565b600080602083850312156119f6576119f5611970565b5b600083013567ffffffffffffffff811115611a1457611a13611975565b5b611a2085828601611989565b92509250509250929050565b600080fd5b6000601f19601f8301169050919050565b7f4e487b7100000000000000000000000000000000000000000000000000000000600052604160045260246000fd5b611a7a82611a31565b810181811067ffffffffffffffff82111715611a9957611a98611a42565b5b80604052505050565b6000611aac611966565b9050611ab88282611a71565b919050565b600067ffffffffffffffff821115611ad857611ad7611a42565b5b611ae182611a31565b9050602081019050919050565b82818337600083830152505050565b6000611b10611b0b84611abd565b611aa2565b905082815260208101848484011115611b2c57611b2b611a2c565b5b611b37848285611aee565b509392505050565b600082601f830112611b5457611b5361197a565b5b8135611b64848260208601611afd565b91505092915050565b6000819050919050565b611b8081611b6d565b8114611b8b57600080fd5b50565b600081359050611b9d81611b77565b92915050565b60008060408385031215611bba57611bb9611970565b5b600083013567ffffffffffffffff811115611bd857611bd7611975565b5b611be485828601611b3f565b9250506020611bf585828601611b8e565b9150509250929050565b611c0881611b6d565b82525050565b6000602082019050611c236000830184611bff565b92915050565b6000819050919050565b611c3c81611c29565b82525050565b6000602082019050611c576000830184611c33565b92915050565b600060208284031215611c7357611c72611970565b5b6000611c8184828501611b8e565b91505092915050565b600073ffffffffffffffffffffffffffffffffffffffff82169050919050565b6000611cb582611c8a565b9050919050565b611cc581611caa565b82525050565b6000602082019050611ce06000830184611cbc565b92915050565b60008083601f840112611cfc57611cfb61197a565b5b8235905067ffffffffffffffff811115611d1957611d1861197f565b5b602083019150836001820283011115611d3557611d34611984565b5b9250929050565b60008060208385031215611d5357611d52611970565b5b600083013567ffffffffffffffff811115611d7157611d70611975565b5b611d7d85828601611ce6565b92509250509250929050565b600081519050919050565b600082825260208201905092915050565b60005b83811015611dc3578082015181840152602081019050611da8565b83811115611dd2576000848401525b50505050565b6000611de382611d89565b611ded8185611d94565b9350611dfd818560208601611da5565b611e0681611a31565b840191505092915050565b6000604082019050611e26600083018561193c565b8181036020830152611e388184611dd8565b90509392505050565b600080600060408486031215611e5a57611e59611970565b5b600084013567ffffffffffffffff811115611e7857611e77611975565b5b611e8486828701611989565b93509350506020611e9786828701611b8e565b9150509250925092565b600067ffffffffffffffff82169050919050565b611ebe81611ea1565b82525050565b6000602082019050611ed96000830184611eb5565b92915050565b611ee881611c29565b8114611ef357600080fd5b50565b600081359050611f0581611edf565b92915050565b600060208284031215611f2157611f20611970565b5b6000611f2f84828501611ef6565b91505092915050565b600060a082019050611f4d6000830188611cbc565b611f5a6020830187611bff565b611f676040830186611c33565b611f746060830185611c33565b611f81608083018461193c565b9695505050505050565b611f9481611930565b8114611f9f57600080fd5b50565b600081359050611fb181611f8b565b92915050565b600060208284031215611fcd57611fcc611970565b5b6000611fdb84828501611fa2565b91505092915050565b600082825260208201905092915050565b7f4163636f756e74206973206c6f636b6564000000000000000000000000000000600082015250565b600061202b601183611fe4565b915061203682611ff5565b602082019050919050565b6000602082019050818103600083015261205a8161201e565b9050919050565b600081905092915050565b60006120788385612061565b9350612085838584611aee565b82840190509392505050565b600061209e82848661206c565b91508190509392505050565b7f436f6e7472616374206973206c6f636b65640000000000000000000000000000600082015250565b60006120e0601283611fe4565b91506120eb826120aa565b602082019050919050565b6000602082019050818103600083015261210f816120d3565b9050919050565b7f4f6e6c79206f776e65722063616e207769746864726177000000000000000000600082015250565b600061214c601783611fe4565b915061215782612116565b602082019050919050565b6000602082019050818103600083015261217b8161213f565b9050919050565b7f546f6f206561726c790000000000000000000000000000000000000000000000600082015250565b60006121b8600983611fe4565b91506121c382612182565b602082019050919050565b600060208201905081810360008301526121e7816121ab565b9050919050565b7f4e616d65207365727669636520696e20616374696f6e2c20776169742074696c60008201527f6c20657870697265000000000000000000000000000000000000000000000000602082015250565b600061224a602883611fe4565b9150612255826121ee565b604082019050919050565b600060208201905081810360008301526122798161223d565b9050919050565b6000819050919050565b61229b61229682611b6d565b612280565b82525050565b60008160601b9050919050565b60006122b9826122a1565b9050919050565b60006122cb826122ae565b9050919050565b6122e36122de82611caa565b6122c0565b82525050565b60006122f5828661228a565b60208201915061230582856122d2565b601482019150612315828461228a565b602082019150819050949350505050565b7f4e487b7100000000000000000000000000000000000000000000000000000000600052601160045260246000fd5b600061236082611c29565b915061236b83611c29565b92508282101561237e5761237d612326565b5b828203905092915050565b600061239482611c29565b91507fffffffffffffffffffffffffffffffffffffffffffffffffffffffffffffffff82036123c6576123c5612326565b5b600182019050919050565b7f43616c6c6572206973206e6f74206f776e6572206f662072656769737472792060008201527f7365727669636500000000000000000000000000000000000000000000000000602082015250565b600061242d602783611fe4565b9150612438826123d1565b604082019050919050565b6000602082019050818103600083015261245c81612420565b9050919050565b7f6e616d65206973206e6f7420617661696c61626c652c2074727920776974682060008201527f616e6f74686572206e616d650000000000000000000000000000000000000000602082015250565b60006124bf602c83611fe4565b91506124ca82612463565b604082019050919050565b600060208201905081810360008301526124ee816124b2565b9050919050565b7f4e6f7420656e6f7567682076616c756520746f207265676973746572206e616d60008201527f6500000000000000000000000000000000000000000000000000000000000000602082015250565b6000612551602183611fe4565b915061255c826124f5565b604082019050919050565b6000602082019050818103600083015261258081612544565b9050919050565b60006125938385611fe4565b93506125a0838584611aee565b6125a983611a31565b840190509392505050565b600060408201905081810360008301526125cf818587612587565b90506125de6020830184611c33565b949350505050565b50565b60006125f6600083612061565b9150612601826125e6565b600082019050919050565b6000612617826125e9565b9150819050919050565b7f726566756e64206e6f7420737563636365737366756c00000000000000000000600082015250565b6000612657601683611fe4565b915061266282612621565b602082019050919050565b600060208201905081810360008301526126868161264a565b9050919050565b7f4e487b7100000000000000000000000000000000000000000000000000000000600052603260045260246000fd5b60006126c782611ea1565b91506126d283611ea1565b92508167ffffffffffffffff04831182151516156126f3576126f2612326565b5b828202905092915050565b7f6f6e646974696f6e202065786973747300000000000000000000000000000000600082015250565b6000612734601083611fe4565b915061273f826126fe565b602082019050919050565b6000602082019050818103600083015261276381612727565b9050919050565b7f42616c616e6365206973207a65726f0000000000000000000000000000000000600082015250565b60006127a0600f83611fe4565b91506127ab8261276a565b602082019050919050565b600060208201905081810360008301526127cf81612793565b9050919050565b7f796f7520617265206e6f74206f776e6572206f662074686973206e616d650000600082015250565b600061280c601e83611fe4565b9150612817826127d6565b602082019050919050565b6000602082019050818103600083015261283b816127ff565b9050919050565b600061284d82611c29565b915061285883611c29565b9250827fffffffffffffffffffffffffffffffffffffffffffffffffffffffffffffffff0382111561288d5761288c612326565b5b82820190509291505056fea2646970667358221220fc85120a92496932040e71486fded6b91cdf83a360bb027f87bdb63cc9facdd364736f6c634300080e0033",
          "opcodes": "PUSH1 0xA0 PUSH1 0x40 MSTORE PUSH8 0x29A2241AF62C0000 PUSH1 0x3 SSTORE CALLVALUE DUP1 ISZERO PUSH3 0x1D JUMPI PUSH1 0x0 DUP1 REVERT JUMPDEST POP PUSH1 0x40 MLOAD PUSH3 0x2A68 CODESIZE SUB DUP1 PUSH3 0x2A68 DUP4 CODECOPY DUP2 DUP2 ADD PUSH1 0x40 MSTORE DUP2 ADD SWAP1 PUSH3 0x43 SWAP2 SWAP1 PUSH3 0x129 JUMP JUMPDEST DUP2 PUSH4 0xFFFFFFFF AND PUSH1 0x2 DUP2 SWAP1 SSTORE POP CALLER PUSH1 0x4 PUSH1 0x0 PUSH2 0x100 EXP DUP2 SLOAD DUP2 PUSH20 0xFFFFFFFFFFFFFFFFFFFFFFFFFFFFFFFFFFFFFFFF MUL NOT AND SWAP1 DUP4 PUSH20 0xFFFFFFFFFFFFFFFFFFFFFFFFFFFFFFFFFFFFFFFF AND MUL OR SWAP1 SSTORE POP DUP1 PUSH1 0x80 DUP2 DUP2 MSTORE POP POP TIMESTAMP PUSH1 0x0 DUP2 SWAP1 SSTORE POP POP POP PUSH3 0x170 JUMP JUMPDEST PUSH1 0x0 DUP1 REVERT JUMPDEST PUSH1 0x0 PUSH4 0xFFFFFFFF DUP3 AND SWAP1 POP SWAP2 SWAP1 POP JUMP JUMPDEST PUSH3 0xC8 DUP2 PUSH3 0xAD JUMP JUMPDEST DUP2 EQ PUSH3 0xD4 JUMPI PUSH1 0x0 DUP1 REVERT JUMPDEST POP JUMP JUMPDEST PUSH1 0x0 DUP2 MLOAD SWAP1 POP PUSH3 0xE8 DUP2 PUSH3 0xBD JUMP JUMPDEST SWAP3 SWAP2 POP POP JUMP JUMPDEST PUSH1 0x0 DUP2 SWAP1 POP SWAP2 SWAP1 POP JUMP JUMPDEST PUSH3 0x103 DUP2 PUSH3 0xEE JUMP JUMPDEST DUP2 EQ PUSH3 0x10F JUMPI PUSH1 0x0 DUP1 REVERT JUMPDEST POP JUMP JUMPDEST PUSH1 0x0 DUP2 MLOAD SWAP1 POP PUSH3 0x123 DUP2 PUSH3 0xF8 JUMP JUMPDEST SWAP3 SWAP2 POP POP JUMP JUMPDEST PUSH1 0x0 DUP1 PUSH1 0x40 DUP4 DUP6 SUB SLT ISZERO PUSH3 0x143 JUMPI PUSH3 0x142 PUSH3 0xA8 JUMP JUMPDEST JUMPDEST PUSH1 0x0 PUSH3 0x153 DUP6 DUP3 DUP7 ADD PUSH3 0xD7 JUMP JUMPDEST SWAP3 POP POP PUSH1 0x20 PUSH3 0x166 DUP6 DUP3 DUP7 ADD PUSH3 0x112 JUMP JUMPDEST SWAP2 POP POP SWAP3 POP SWAP3 SWAP1 POP JUMP JUMPDEST PUSH1 0x80 MLOAD PUSH2 0x28CE PUSH3 0x19A PUSH1 0x0 CODECOPY PUSH1 0x0 DUP2 DUP2 PUSH2 0x8F9 ADD MSTORE DUP2 DUP2 PUSH2 0xB95 ADD MSTORE PUSH2 0x12DF ADD MSTORE PUSH2 0x28CE PUSH1 0x0 RETURN INVALID PUSH1 0x80 PUSH1 0x40 MSTORE PUSH1 0x4 CALLDATASIZE LT PUSH2 0x14F JUMPI PUSH1 0x0 CALLDATALOAD PUSH1 0xE0 SHR DUP1 PUSH4 0x85EC41CF GT PUSH2 0xB6 JUMPI DUP1 PUSH4 0xB194A72C GT PUSH2 0x6F JUMPI DUP1 PUSH4 0xB194A72C EQ PUSH2 0x46D JUMPI DUP1 PUSH4 0xCD1388FA EQ PUSH2 0x496 JUMPI DUP1 PUSH4 0xE6200DC2 EQ PUSH2 0x4D7 JUMPI DUP1 PUSH4 0xF0E55533 EQ PUSH2 0x4EE JUMPI DUP1 PUSH4 0xF343081F EQ PUSH2 0x517 JUMPI DUP1 PUSH4 0xF3E11523 EQ PUSH2 0x554 JUMPI PUSH2 0x156 JUMP JUMPDEST DUP1 PUSH4 0x85EC41CF EQ PUSH2 0x36F JUMPI DUP1 PUSH4 0x8648C36B EQ PUSH2 0x386 JUMPI DUP1 PUSH4 0x8DA5CB5B EQ PUSH2 0x3C3 JUMPI DUP1 PUSH4 0x9303B16F EQ PUSH2 0x3EE JUMPI DUP1 PUSH4 0x947A36FB EQ PUSH2 0x417 JUMPI DUP1 PUSH4 0xA94EA5CC EQ PUSH2 0x442 JUMPI PUSH2 0x156 JUMP JUMPDEST DUP1 PUSH4 0x6A43AAE7 GT PUSH2 0x108 JUMPI DUP1 PUSH4 0x6A43AAE7 EQ PUSH2 0x26D JUMPI DUP1 PUSH4 0x6E04FF0D EQ PUSH2 0x296 JUMPI DUP1 PUSH4 0x6F9FB98A EQ PUSH2 0x2D4 JUMPI DUP1 PUSH4 0x78446BC1 EQ PUSH2 0x2FF JUMPI DUP1 PUSH4 0x801C7232 EQ PUSH2 0x32A JUMPI DUP1 PUSH4 0x8225AF80 EQ PUSH2 0x353 JUMPI PUSH2 0x156 JUMP JUMPDEST DUP1 PUSH4 0xC982673 EQ PUSH2 0x158 JUMPI DUP1 PUSH4 0x16B9459F EQ PUSH2 0x183 JUMPI DUP1 PUSH4 0x2894D492 EQ PUSH2 0x19F JUMPI DUP1 PUSH4 0x3F3B3B27 EQ PUSH2 0x1DC JUMPI DUP1 PUSH4 0x41F5947B EQ PUSH2 0x207 JUMPI DUP1 PUSH4 0x4585E33B EQ PUSH2 0x244 JUMPI PUSH2 0x156 JUMP JUMPDEST CALLDATASIZE PUSH2 0x156 JUMPI STOP JUMPDEST STOP JUMPDEST CALLVALUE DUP1 ISZERO PUSH2 0x164 JUMPI PUSH1 0x0 DUP1 REVERT JUMPDEST POP PUSH2 0x16D PUSH2 0x570 JUMP JUMPDEST PUSH1 0x40 MLOAD PUSH2 0x17A SWAP2 SWAP1 PUSH2 0x194B JUMP JUMPDEST PUSH1 0x40 MLOAD DUP1 SWAP2 SUB SWAP1 RETURN JUMPDEST PUSH2 0x19D PUSH1 0x4 DUP1 CALLDATASIZE SUB DUP2 ADD SWAP1 PUSH2 0x198 SWAP2 SWAP1 PUSH2 0x19DF JUMP JUMPDEST PUSH2 0x587 JUMP JUMPDEST STOP JUMPDEST CALLVALUE DUP1 ISZERO PUSH2 0x1AB JUMPI PUSH1 0x0 DUP1 REVERT JUMPDEST POP PUSH2 0x1C6 PUSH1 0x4 DUP1 CALLDATASIZE SUB DUP2 ADD SWAP1 PUSH2 0x1C1 SWAP2 SWAP1 PUSH2 0x1BA3 JUMP JUMPDEST PUSH2 0x875 JUMP JUMPDEST PUSH1 0x40 MLOAD PUSH2 0x1D3 SWAP2 SWAP1 PUSH2 0x1C0E JUMP JUMPDEST PUSH1 0x40 MLOAD DUP1 SWAP2 SUB SWAP1 RETURN JUMPDEST CALLVALUE DUP1 ISZERO PUSH2 0x1E8 JUMPI PUSH1 0x0 DUP1 REVERT JUMPDEST POP PUSH2 0x1F1 PUSH2 0x8B1 JUMP JUMPDEST PUSH1 0x40 MLOAD PUSH2 0x1FE SWAP2 SWAP1 PUSH2 0x1C42 JUMP JUMPDEST PUSH1 0x40 MLOAD DUP1 SWAP2 SUB SWAP1 RETURN JUMPDEST CALLVALUE DUP1 ISZERO PUSH2 0x213 JUMPI PUSH1 0x0 DUP1 REVERT JUMPDEST POP PUSH2 0x22E PUSH1 0x4 DUP1 CALLDATASIZE SUB DUP2 ADD SWAP1 PUSH2 0x229 SWAP2 SWAP1 PUSH2 0x1C5D JUMP JUMPDEST PUSH2 0x8B7 JUMP JUMPDEST PUSH1 0x40 MLOAD PUSH2 0x23B SWAP2 SWAP1 PUSH2 0x1CCB JUMP JUMPDEST PUSH1 0x40 MLOAD DUP1 SWAP2 SUB SWAP1 RETURN JUMPDEST CALLVALUE DUP1 ISZERO PUSH2 0x250 JUMPI PUSH1 0x0 DUP1 REVERT JUMPDEST POP PUSH2 0x26B PUSH1 0x4 DUP1 CALLDATASIZE SUB DUP2 ADD SWAP1 PUSH2 0x266 SWAP2 SWAP1 PUSH2 0x1D3C JUMP JUMPDEST PUSH2 0x8F7 JUMP JUMPDEST STOP JUMPDEST CALLVALUE DUP1 ISZERO PUSH2 0x279 JUMPI PUSH1 0x0 DUP1 REVERT JUMPDEST POP PUSH2 0x294 PUSH1 0x4 DUP1 CALLDATASIZE SUB DUP2 ADD SWAP1 PUSH2 0x28F SWAP2 SWAP1 PUSH2 0x19DF JUMP JUMPDEST PUSH2 0x958 JUMP JUMPDEST STOP JUMPDEST CALLVALUE DUP1 ISZERO PUSH2 0x2A2 JUMPI PUSH1 0x0 DUP1 REVERT JUMPDEST POP PUSH2 0x2BD PUSH1 0x4 DUP1 CALLDATASIZE SUB DUP2 ADD SWAP1 PUSH2 0x2B8 SWAP2 SWAP1 PUSH2 0x1D3C JUMP JUMPDEST PUSH2 0xB8F JUMP JUMPDEST PUSH1 0x40 MLOAD PUSH2 0x2CB SWAP3 SWAP2 SWAP1 PUSH2 0x1E11 JUMP JUMPDEST PUSH1 0x40 MLOAD DUP1 SWAP2 SUB SWAP1 RETURN JUMPDEST CALLVALUE DUP1 ISZERO PUSH2 0x2E0 JUMPI PUSH1 0x0 DUP1 REVERT JUMPDEST POP PUSH2 0x2E9 PUSH2 0xBCC JUMP JUMPDEST PUSH1 0x40 MLOAD PUSH2 0x2F6 SWAP2 SWAP1 PUSH2 0x1C42 JUMP JUMPDEST PUSH1 0x40 MLOAD DUP1 SWAP2 SUB SWAP1 RETURN JUMPDEST CALLVALUE DUP1 ISZERO PUSH2 0x30B JUMPI PUSH1 0x0 DUP1 REVERT JUMPDEST POP PUSH2 0x314 PUSH2 0xBD4 JUMP JUMPDEST PUSH1 0x40 MLOAD PUSH2 0x321 SWAP2 SWAP1 PUSH2 0x1C42 JUMP JUMPDEST PUSH1 0x40 MLOAD DUP1 SWAP2 SUB SWAP1 RETURN JUMPDEST CALLVALUE DUP1 ISZERO PUSH2 0x336 JUMPI PUSH1 0x0 DUP1 REVERT JUMPDEST POP PUSH2 0x351 PUSH1 0x4 DUP1 CALLDATASIZE SUB DUP2 ADD SWAP1 PUSH2 0x34C SWAP2 SWAP1 PUSH2 0x1C5D JUMP JUMPDEST PUSH2 0xBDA JUMP JUMPDEST STOP JUMPDEST PUSH2 0x36D PUSH1 0x4 DUP1 CALLDATASIZE SUB DUP2 ADD SWAP1 PUSH2 0x368 SWAP2 SWAP1 PUSH2 0x1E41 JUMP JUMPDEST PUSH2 0xC6F JUMP JUMPDEST STOP JUMPDEST CALLVALUE DUP1 ISZERO PUSH2 0x37B JUMPI PUSH1 0x0 DUP1 REVERT JUMPDEST POP PUSH2 0x384 PUSH2 0x105F JUMP JUMPDEST STOP JUMPDEST CALLVALUE DUP1 ISZERO PUSH2 0x392 JUMPI PUSH1 0x0 DUP1 REVERT JUMPDEST POP PUSH2 0x3AD PUSH1 0x4 DUP1 CALLDATASIZE SUB DUP2 ADD SWAP1 PUSH2 0x3A8 SWAP2 SWAP1 PUSH2 0x19DF JUMP JUMPDEST PUSH2 0x11C4 JUMP JUMPDEST PUSH1 0x40 MLOAD PUSH2 0x3BA SWAP2 SWAP1 PUSH2 0x1EC4 JUMP JUMPDEST PUSH1 0x40 MLOAD DUP1 SWAP2 SUB SWAP1 RETURN JUMPDEST CALLVALUE DUP1 ISZERO PUSH2 0x3CF JUMPI PUSH1 0x0 DUP1 REVERT JUMPDEST POP PUSH2 0x3D8 PUSH2 0x11E4 JUMP JUMPDEST PUSH1 0x40 MLOAD PUSH2 0x3E5 SWAP2 SWAP1 PUSH2 0x1CCB JUMP JUMPDEST PUSH1 0x40 MLOAD DUP1 SWAP2 SUB SWAP1 RETURN JUMPDEST CALLVALUE DUP1 ISZERO PUSH2 0x3FA JUMPI PUSH1 0x0 DUP1 REVERT JUMPDEST POP PUSH2 0x415 PUSH1 0x4 DUP1 CALLDATASIZE SUB DUP2 ADD SWAP1 PUSH2 0x410 SWAP2 SWAP1 PUSH2 0x1F0B JUMP JUMPDEST PUSH2 0x120A JUMP JUMPDEST STOP JUMPDEST CALLVALUE DUP1 ISZERO PUSH2 0x423 JUMPI PUSH1 0x0 DUP1 REVERT JUMPDEST POP PUSH2 0x42C PUSH2 0x12DD JUMP JUMPDEST PUSH1 0x40 MLOAD PUSH2 0x439 SWAP2 SWAP1 PUSH2 0x1C42 JUMP JUMPDEST PUSH1 0x40 MLOAD DUP1 SWAP2 SUB SWAP1 RETURN JUMPDEST CALLVALUE DUP1 ISZERO PUSH2 0x44E JUMPI PUSH1 0x0 DUP1 REVERT JUMPDEST POP PUSH2 0x457 PUSH2 0x1301 JUMP JUMPDEST PUSH1 0x40 MLOAD PUSH2 0x464 SWAP2 SWAP1 PUSH2 0x1C42 JUMP JUMPDEST PUSH1 0x40 MLOAD DUP1 SWAP2 SUB SWAP1 RETURN JUMPDEST CALLVALUE DUP1 ISZERO PUSH2 0x479 JUMPI PUSH1 0x0 DUP1 REVERT JUMPDEST POP PUSH2 0x494 PUSH1 0x4 DUP1 CALLDATASIZE SUB DUP2 ADD SWAP1 PUSH2 0x48F SWAP2 SWAP1 PUSH2 0x1C5D JUMP JUMPDEST PUSH2 0x1307 JUMP JUMPDEST STOP JUMPDEST CALLVALUE DUP1 ISZERO PUSH2 0x4A2 JUMPI PUSH1 0x0 DUP1 REVERT JUMPDEST POP PUSH2 0x4BD PUSH1 0x4 DUP1 CALLDATASIZE SUB DUP2 ADD SWAP1 PUSH2 0x4B8 SWAP2 SWAP1 PUSH2 0x1C5D JUMP JUMPDEST PUSH2 0x1396 JUMP JUMPDEST PUSH1 0x40 MLOAD PUSH2 0x4CE SWAP6 SWAP5 SWAP4 SWAP3 SWAP2 SWAP1 PUSH2 0x1F38 JUMP JUMPDEST PUSH1 0x40 MLOAD DUP1 SWAP2 SUB SWAP1 RETURN JUMPDEST CALLVALUE DUP1 ISZERO PUSH2 0x4E3 JUMPI PUSH1 0x0 DUP1 REVERT JUMPDEST POP PUSH2 0x4EC PUSH2 0x13F9 JUMP JUMPDEST STOP JUMPDEST CALLVALUE DUP1 ISZERO PUSH2 0x4FA JUMPI PUSH1 0x0 DUP1 REVERT JUMPDEST POP PUSH2 0x515 PUSH1 0x4 DUP1 CALLDATASIZE SUB DUP2 ADD SWAP1 PUSH2 0x510 SWAP2 SWAP1 PUSH2 0x1FB7 JUMP JUMPDEST PUSH2 0x15B3 JUMP JUMPDEST STOP JUMPDEST CALLVALUE DUP1 ISZERO PUSH2 0x523 JUMPI PUSH1 0x0 DUP1 REVERT JUMPDEST POP PUSH2 0x53E PUSH1 0x4 DUP1 CALLDATASIZE SUB DUP2 ADD SWAP1 PUSH2 0x539 SWAP2 SWAP1 PUSH2 0x1F0B JUMP JUMPDEST PUSH2 0x1697 JUMP JUMPDEST PUSH1 0x40 MLOAD PUSH2 0x54B SWAP2 SWAP1 PUSH2 0x1C0E JUMP JUMPDEST PUSH1 0x40 MLOAD DUP1 SWAP2 SUB SWAP1 RETURN JUMPDEST PUSH2 0x56E PUSH1 0x4 DUP1 CALLDATASIZE SUB DUP2 ADD SWAP1 PUSH2 0x569 SWAP2 SWAP1 PUSH2 0x19DF JUMP JUMPDEST PUSH2 0x16BB JUMP JUMPDEST STOP JUMPDEST PUSH1 0x0 PUSH1 0x4 PUSH1 0x14 SWAP1 SLOAD SWAP1 PUSH2 0x100 EXP SWAP1 DIV PUSH1 0xFF AND SWAP1 POP SWAP1 JUMP JUMPDEST PUSH1 0x4 PUSH1 0x14 SWAP1 SLOAD SWAP1 PUSH2 0x100 EXP SWAP1 DIV PUSH1 0xFF AND ISZERO PUSH2 0x5D7 JUMPI PUSH1 0x40 MLOAD PUSH32 0x8C379A000000000000000000000000000000000000000000000000000000000 DUP2 MSTORE PUSH1 0x4 ADD PUSH2 0x5CE SWAP1 PUSH2 0x2041 JUMP JUMPDEST PUSH1 0x40 MLOAD DUP1 SWAP2 SUB SWAP1 REVERT JUMPDEST PUSH1 0x0 DUP3 DUP3 PUSH1 0x40 MLOAD PUSH2 0x5E9 SWAP3 SWAP2 SWAP1 PUSH2 0x2091 JUMP JUMPDEST PUSH1 0x40 MLOAD DUP1 SWAP2 SUB SWAP1 KECCAK256 SWAP1 POP PUSH1 0x4 PUSH1 0x14 SWAP1 SLOAD SWAP1 PUSH2 0x100 EXP SWAP1 DIV PUSH1 0xFF AND ISZERO PUSH2 0x643 JUMPI PUSH1 0x40 MLOAD PUSH32 0x8C379A000000000000000000000000000000000000000000000000000000000 DUP2 MSTORE PUSH1 0x4 ADD PUSH2 0x63A SWAP1 PUSH2 0x20F6 JUMP JUMPDEST PUSH1 0x40 MLOAD DUP1 SWAP2 SUB SWAP1 REVERT JUMPDEST CALLER PUSH20 0xFFFFFFFFFFFFFFFFFFFFFFFFFFFFFFFFFFFFFFFF AND PUSH1 0x6 PUSH1 0x0 DUP4 DUP2 MSTORE PUSH1 0x20 ADD SWAP1 DUP2 MSTORE PUSH1 0x20 ADD PUSH1 0x0 KECCAK256 PUSH1 0x0 ADD PUSH1 0x0 SWAP1 SLOAD SWAP1 PUSH2 0x100 EXP SWAP1 DIV PUSH20 0xFFFFFFFFFFFFFFFFFFFFFFFFFFFFFFFFFFFFFFFF AND PUSH20 0xFFFFFFFFFFFFFFFFFFFFFFFFFFFFFFFFFFFFFFFF AND EQ PUSH2 0x6E7 JUMPI PUSH1 0x40 MLOAD PUSH32 0x8C379A000000000000000000000000000000000000000000000000000000000 DUP2 MSTORE PUSH1 0x4 ADD PUSH2 0x6DE SWAP1 PUSH2 0x2162 JUMP JUMPDEST PUSH1 0x40 MLOAD DUP1 SWAP2 SUB SWAP1 REVERT JUMPDEST PUSH1 0x6 PUSH1 0x0 DUP3 DUP2 MSTORE PUSH1 0x20 ADD SWAP1 DUP2 MSTORE PUSH1 0x20 ADD PUSH1 0x0 KECCAK256 PUSH1 0x3 ADD SLOAD TIMESTAMP GT PUSH2 0x73F JUMPI PUSH1 0x40 MLOAD PUSH32 0x8C379A000000000000000000000000000000000000000000000000000000000 DUP2 MSTORE PUSH1 0x4 ADD PUSH2 0x736 SWAP1 PUSH2 0x21CE JUMP JUMPDEST PUSH1 0x40 MLOAD DUP1 SWAP2 SUB SWAP1 REVERT JUMPDEST PUSH1 0x6 PUSH1 0x0 DUP3 DUP2 MSTORE PUSH1 0x20 ADD SWAP1 DUP2 MSTORE PUSH1 0x20 ADD PUSH1 0x0 KECCAK256 PUSH1 0x4 ADD PUSH1 0x0 SWAP1 SLOAD SWAP1 PUSH2 0x100 EXP SWAP1 DIV PUSH1 0xFF AND ISZERO PUSH2 0x7A3 JUMPI PUSH1 0x40 MLOAD PUSH32 0x8C379A000000000000000000000000000000000000000000000000000000000 DUP2 MSTORE PUSH1 0x4 ADD PUSH2 0x79A SWAP1 PUSH2 0x2260 JUMP JUMPDEST PUSH1 0x40 MLOAD DUP1 SWAP2 SUB SWAP1 REVERT JUMPDEST PUSH1 0x0 PUSH1 0x6 PUSH1 0x0 DUP4 DUP2 MSTORE PUSH1 0x20 ADD SWAP1 DUP2 MSTORE PUSH1 0x20 ADD PUSH1 0x0 KECCAK256 PUSH1 0x2 ADD SLOAD SWAP1 POP PUSH1 0x0 PUSH1 0x6 PUSH1 0x0 DUP5 DUP2 MSTORE PUSH1 0x20 ADD SWAP1 DUP2 MSTORE PUSH1 0x20 ADD PUSH1 0x0 KECCAK256 PUSH1 0x2 ADD DUP2 SWAP1 SSTORE POP CALLER PUSH20 0xFFFFFFFFFFFFFFFFFFFFFFFFFFFFFFFFFFFFFFFF AND PUSH2 0x8FC DUP3 SWAP1 DUP2 ISZERO MUL SWAP1 PUSH1 0x40 MLOAD PUSH1 0x0 PUSH1 0x40 MLOAD DUP1 DUP4 SUB DUP2 DUP6 DUP9 DUP9 CALL SWAP4 POP POP POP POP ISZERO DUP1 ISZERO PUSH2 0x820 JUMPI RETURNDATASIZE PUSH1 0x0 DUP1 RETURNDATACOPY RETURNDATASIZE PUSH1 0x0 REVERT JUMPDEST POP CALLER PUSH20 0xFFFFFFFFFFFFFFFFFFFFFFFFFFFFFFFFFFFFFFFF AND PUSH32 0x5A87BEB49578535FDDEFC2BDF5D1348FF0CA08CBE4F77C80F55BA5CCD561533F DUP3 PUSH1 0x40 MLOAD PUSH2 0x867 SWAP2 SWAP1 PUSH2 0x1C42 JUMP JUMPDEST PUSH1 0x40 MLOAD DUP1 SWAP2 SUB SWAP1 LOG2 POP POP POP POP JUMP JUMPDEST PUSH1 0x0 DUP3 DUP1 MLOAD SWAP1 PUSH1 0x20 ADD KECCAK256 CALLER DUP4 PUSH1 0x40 MLOAD PUSH1 0x20 ADD PUSH2 0x893 SWAP4 SWAP3 SWAP2 SWAP1 PUSH2 0x22E9 JUMP JUMPDEST PUSH1 0x40 MLOAD PUSH1 0x20 DUP2 DUP4 SUB SUB DUP2 MSTORE SWAP1 PUSH1 0x40 MSTORE DUP1 MLOAD SWAP1 PUSH1 0x20 ADD KECCAK256 SWAP1 POP SWAP3 SWAP2 POP POP JUMP JUMPDEST PUSH1 0x0 SLOAD DUP2 JUMP JUMPDEST PUSH1 0x0 PUSH1 0x6 PUSH1 0x0 DUP4 DUP2 MSTORE PUSH1 0x20 ADD SWAP1 DUP2 MSTORE PUSH1 0x20 ADD PUSH1 0x0 KECCAK256 PUSH1 0x0 ADD PUSH1 0x0 SWAP1 SLOAD SWAP1 PUSH2 0x100 EXP SWAP1 DIV PUSH20 0xFFFFFFFFFFFFFFFFFFFFFFFFFFFFFFFFFFFFFFFF AND SWAP1 POP SWAP2 SWAP1 POP JUMP JUMPDEST PUSH32 0x0 PUSH1 0x0 SLOAD TIMESTAMP PUSH2 0x926 SWAP2 SWAP1 PUSH2 0x2355 JUMP JUMPDEST GT ISZERO PUSH2 0x954 JUMPI TIMESTAMP PUSH1 0x0 DUP2 SWAP1 SSTORE POP PUSH2 0x93B PUSH2 0x105F JUMP JUMPDEST PUSH1 0x1 PUSH1 0x0 DUP2 SLOAD DUP1 SWAP3 SWAP2 SWAP1 PUSH2 0x94E SWAP1 PUSH2 0x2389 JUMP JUMPDEST SWAP2 SWAP1 POP SSTORE POP JUMPDEST POP POP JUMP JUMPDEST PUSH1 0x4 PUSH1 0x0 SWAP1 SLOAD SWAP1 PUSH2 0x100 EXP SWAP1 DIV PUSH20 0xFFFFFFFFFFFFFFFFFFFFFFFFFFFFFFFFFFFFFFFF AND PUSH20 0xFFFFFFFFFFFFFFFFFFFFFFFFFFFFFFFFFFFFFFFF AND CALLER PUSH20 0xFFFFFFFFFFFFFFFFFFFFFFFFFFFFFFFFFFFFFFFF AND EQ PUSH2 0x9E8 JUMPI PUSH1 0x40 MLOAD PUSH32 0x8C379A000000000000000000000000000000000000000000000000000000000 DUP2 MSTORE PUSH1 0x4 ADD PUSH2 0x9DF SWAP1 PUSH2 0x2443 JUMP JUMPDEST PUSH1 0x40 MLOAD DUP1 SWAP2 SUB SWAP1 REVERT JUMPDEST PUSH1 0x4 PUSH1 0x14 SWAP1 SLOAD SWAP1 PUSH2 0x100 EXP SWAP1 DIV PUSH1 0xFF AND ISZERO PUSH2 0xA38 JUMPI PUSH1 0x40 MLOAD PUSH32 0x8C379A000000000000000000000000000000000000000000000000000000000 DUP2 MSTORE PUSH1 0x4 ADD PUSH2 0xA2F SWAP1 PUSH2 0x2041 JUMP JUMPDEST PUSH1 0x40 MLOAD DUP1 SWAP2 SUB SWAP1 REVERT JUMPDEST PUSH1 0x0 DUP3 DUP3 PUSH1 0x40 MLOAD PUSH2 0xA4A SWAP3 SWAP2 SWAP1 PUSH2 0x2091 JUMP JUMPDEST PUSH1 0x40 MLOAD DUP1 SWAP2 SUB SWAP1 KECCAK256 SWAP1 POP PUSH32 0x2000000000000000000000000000000000000000000000000000000000000000 PUSH1 0x6 PUSH1 0x0 DUP4 DUP2 MSTORE PUSH1 0x20 ADD SWAP1 DUP2 MSTORE PUSH1 0x20 ADD PUSH1 0x0 KECCAK256 PUSH1 0x1 ADD DUP2 SWAP1 SSTORE POP PUSH1 0x0 PUSH1 0x6 PUSH1 0x0 DUP4 DUP2 MSTORE PUSH1 0x20 ADD SWAP1 DUP2 MSTORE PUSH1 0x20 ADD PUSH1 0x0 KECCAK256 PUSH1 0x3 ADD DUP2 SWAP1 SSTORE POP PUSH1 0x0 PUSH1 0x6 PUSH1 0x0 DUP4 DUP2 MSTORE PUSH1 0x20 ADD SWAP1 DUP2 MSTORE PUSH1 0x20 ADD PUSH1 0x0 KECCAK256 PUSH1 0x0 ADD PUSH1 0x0 PUSH2 0x100 EXP DUP2 SLOAD DUP2 PUSH20 0xFFFFFFFFFFFFFFFFFFFFFFFFFFFFFFFFFFFFFFFF MUL NOT AND SWAP1 DUP4 PUSH20 0xFFFFFFFFFFFFFFFFFFFFFFFFFFFFFFFFFFFFFFFF AND MUL OR SWAP1 SSTORE POP PUSH1 0x0 PUSH1 0x6 PUSH1 0x0 DUP4 DUP2 MSTORE PUSH1 0x20 ADD SWAP1 DUP2 MSTORE PUSH1 0x20 ADD PUSH1 0x0 KECCAK256 PUSH1 0x4 ADD PUSH1 0x0 PUSH2 0x100 EXP DUP2 SLOAD DUP2 PUSH1 0xFF MUL NOT AND SWAP1 DUP4 ISZERO ISZERO MUL OR SWAP1 SSTORE POP PUSH1 0x6 PUSH1 0x0 DUP3 DUP2 MSTORE PUSH1 0x20 ADD SWAP1 DUP2 MSTORE PUSH1 0x20 ADD PUSH1 0x0 KECCAK256 PUSH1 0x1 ADD SLOAD CALLER PUSH20 0xFFFFFFFFFFFFFFFFFFFFFFFFFFFFFFFFFFFFFFFF AND PUSH32 0xE9A8042F02A1C5770C208431E10C1A87D852F7B2C9F45714FF90FD2C9E7A3293 PUSH1 0x40 MLOAD PUSH1 0x40 MLOAD DUP1 SWAP2 SUB SWAP1 LOG3 POP POP POP JUMP JUMPDEST PUSH1 0x0 PUSH1 0x60 PUSH32 0x0 PUSH1 0x0 SLOAD TIMESTAMP PUSH2 0xBC2 SWAP2 SWAP1 PUSH2 0x2355 JUMP JUMPDEST GT SWAP2 POP SWAP3 POP SWAP3 SWAP1 POP JUMP JUMPDEST PUSH1 0x0 SELFBALANCE SWAP1 POP SWAP1 JUMP JUMPDEST PUSH1 0x2 SLOAD DUP2 JUMP JUMPDEST TIMESTAMP PUSH2 0xC0C PUSH1 0x3C PUSH8 0xFFFFFFFFFFFFFFFF AND PUSH1 0x7 PUSH1 0x0 DUP6 DUP2 MSTORE PUSH1 0x20 ADD SWAP1 DUP2 MSTORE PUSH1 0x20 ADD PUSH1 0x0 KECCAK256 SLOAD PUSH2 0x191A SWAP1 SWAP2 SWAP1 PUSH4 0xFFFFFFFF AND JUMP JUMPDEST GT ISZERO PUSH2 0xC17 JUMPI PUSH1 0x0 DUP1 REVERT JUMPDEST TIMESTAMP PUSH2 0xC4B PUSH3 0x15180 PUSH8 0xFFFFFFFFFFFFFFFF AND PUSH1 0x7 PUSH1 0x0 DUP6 DUP2 MSTORE PUSH1 0x20 ADD SWAP1 DUP2 MSTORE PUSH1 0x20 ADD PUSH1 0x0 KECCAK256 SLOAD PUSH2 0x191A SWAP1 SWAP2 SWAP1 PUSH4 0xFFFFFFFF AND JUMP JUMPDEST GT PUSH2 0xC55 JUMPI PUSH1 0x0 DUP1 REVERT JUMPDEST PUSH1 0x7 PUSH1 0x0 DUP3 DUP2 MSTORE PUSH1 0x20 ADD SWAP1 DUP2 MSTORE PUSH1 0x20 ADD PUSH1 0x0 KECCAK256 PUSH1 0x0 SWAP1 SSTORE POP JUMP JUMPDEST PUSH1 0x0 DUP4 DUP4 PUSH1 0x40 MLOAD PUSH2 0xC81 SWAP3 SWAP2 SWAP1 PUSH2 0x2091 JUMP JUMPDEST PUSH1 0x40 MLOAD DUP1 SWAP2 SUB SWAP1 KECCAK256 SWAP1 POP PUSH1 0x0 PUSH20 0xFFFFFFFFFFFFFFFFFFFFFFFFFFFFFFFFFFFFFFFF AND PUSH2 0xCAC DUP3 PUSH2 0x8B7 JUMP JUMPDEST PUSH20 0xFFFFFFFFFFFFFFFFFFFFFFFFFFFFFFFFFFFFFFFF AND EQ PUSH2 0xD02 JUMPI PUSH1 0x40 MLOAD PUSH32 0x8C379A000000000000000000000000000000000000000000000000000000000 DUP2 MSTORE PUSH1 0x4 ADD PUSH2 0xCF9 SWAP1 PUSH2 0x24D5 JUMP JUMPDEST PUSH1 0x40 MLOAD DUP1 SWAP2 SUB SWAP1 REVERT JUMPDEST PUSH1 0x0 PUSH2 0xD52 DUP6 DUP6 DUP1 DUP1 PUSH1 0x1F ADD PUSH1 0x20 DUP1 SWAP2 DIV MUL PUSH1 0x20 ADD PUSH1 0x40 MLOAD SWAP1 DUP2 ADD PUSH1 0x40 MSTORE DUP1 SWAP4 SWAP3 SWAP2 SWAP1 DUP2 DUP2 MSTORE PUSH1 0x20 ADD DUP4 DUP4 DUP1 DUP3 DUP5 CALLDATACOPY PUSH1 0x0 DUP2 DUP5 ADD MSTORE PUSH1 0x1F NOT PUSH1 0x1F DUP3 ADD AND SWAP1 POP DUP1 DUP4 ADD SWAP3 POP POP POP POP POP POP POP DUP5 PUSH2 0x875 JUMP JUMPDEST SWAP1 POP PUSH2 0xD5D DUP2 PUSH2 0xBDA JUMP JUMPDEST PUSH1 0x0 PUSH2 0xD69 DUP7 DUP7 PUSH2 0x11C4 JUMP JUMPDEST PUSH8 0xFFFFFFFFFFFFFFFF AND SWAP1 POP PUSH1 0x0 PUSH2 0xD8C DUP3 PUSH1 0x3 SLOAD PUSH2 0x191A SWAP1 SWAP2 SWAP1 PUSH4 0xFFFFFFFF AND JUMP JUMPDEST SWAP1 POP DUP1 CALLVALUE LT ISZERO PUSH2 0xDD1 JUMPI PUSH1 0x40 MLOAD PUSH32 0x8C379A000000000000000000000000000000000000000000000000000000000 DUP2 MSTORE PUSH1 0x4 ADD PUSH2 0xDC8 SWAP1 PUSH2 0x2567 JUMP JUMPDEST PUSH1 0x40 MLOAD DUP1 SWAP2 SUB SWAP1 REVERT JUMPDEST PUSH1 0x4 PUSH1 0x14 SWAP1 SLOAD SWAP1 PUSH2 0x100 EXP SWAP1 DIV PUSH1 0xFF AND ISZERO PUSH2 0xE21 JUMPI PUSH1 0x40 MLOAD PUSH32 0x8C379A000000000000000000000000000000000000000000000000000000000 DUP2 MSTORE PUSH1 0x4 ADD PUSH2 0xE18 SWAP1 PUSH2 0x2041 JUMP JUMPDEST PUSH1 0x40 MLOAD DUP1 SWAP2 SUB SWAP1 REVERT JUMPDEST PUSH1 0x0 PUSH2 0xE38 TIMESTAMP PUSH1 0x2 SLOAD PUSH2 0x191A SWAP1 SWAP2 SWAP1 PUSH4 0xFFFFFFFF AND JUMP JUMPDEST SWAP1 POP PUSH1 0x40 MLOAD DUP1 PUSH1 0xA0 ADD PUSH1 0x40 MSTORE DUP1 CALLER PUSH20 0xFFFFFFFFFFFFFFFFFFFFFFFFFFFFFFFFFFFFFFFF AND DUP2 MSTORE PUSH1 0x20 ADD DUP7 DUP2 MSTORE PUSH1 0x20 ADD PUSH1 0x3 SLOAD DUP2 MSTORE PUSH1 0x20 ADD DUP3 DUP2 MSTORE PUSH1 0x20 ADD PUSH1 0x1 ISZERO ISZERO DUP2 MSTORE POP PUSH1 0x6 PUSH1 0x0 DUP8 DUP2 MSTORE PUSH1 0x20 ADD SWAP1 DUP2 MSTORE PUSH1 0x20 ADD PUSH1 0x0 KECCAK256 PUSH1 0x0 DUP3 ADD MLOAD DUP2 PUSH1 0x0 ADD PUSH1 0x0 PUSH2 0x100 EXP DUP2 SLOAD DUP2 PUSH20 0xFFFFFFFFFFFFFFFFFFFFFFFFFFFFFFFFFFFFFFFF MUL NOT AND SWAP1 DUP4 PUSH20 0xFFFFFFFFFFFFFFFFFFFFFFFFFFFFFFFFFFFFFFFF AND MUL OR SWAP1 SSTORE POP PUSH1 0x20 DUP3 ADD MLOAD DUP2 PUSH1 0x1 ADD SSTORE PUSH1 0x40 DUP3 ADD MLOAD DUP2 PUSH1 0x2 ADD SSTORE PUSH1 0x60 DUP3 ADD MLOAD DUP2 PUSH1 0x3 ADD SSTORE PUSH1 0x80 DUP3 ADD MLOAD DUP2 PUSH1 0x4 ADD PUSH1 0x0 PUSH2 0x100 EXP DUP2 SLOAD DUP2 PUSH1 0xFF MUL NOT AND SWAP1 DUP4 ISZERO ISZERO MUL OR SWAP1 SSTORE POP SWAP1 POP POP PUSH1 0x5 DUP6 SWAP1 DUP1 PUSH1 0x1 DUP2 SLOAD ADD DUP1 DUP3 SSTORE DUP1 SWAP2 POP POP PUSH1 0x1 SWAP1 SUB SWAP1 PUSH1 0x0 MSTORE PUSH1 0x20 PUSH1 0x0 KECCAK256 ADD PUSH1 0x0 SWAP1 SWAP2 SWAP1 SWAP2 SWAP1 SWAP2 POP SSTORE CALLER PUSH20 0xFFFFFFFFFFFFFFFFFFFFFFFFFFFFFFFFFFFFFFFF AND PUSH32 0xDCC2175A495289B48DA3C0C903E6E8FD7BBF9400CC93D7D1B8BE780FC5916C66 DUP10 DUP10 PUSH1 0x3 SLOAD PUSH1 0x40 MLOAD PUSH2 0xF8C SWAP4 SWAP3 SWAP2 SWAP1 PUSH2 0x25B4 JUMP JUMPDEST PUSH1 0x40 MLOAD DUP1 SWAP2 SUB SWAP1 LOG2 DUP2 CALLVALUE GT ISZERO PUSH2 0x1055 JUMPI PUSH1 0x0 CALLER PUSH20 0xFFFFFFFFFFFFFFFFFFFFFFFFFFFFFFFFFFFFFFFF AND DUP4 CALLVALUE PUSH2 0xFC1 SWAP2 SWAP1 PUSH2 0x2355 JUMP JUMPDEST PUSH1 0x40 MLOAD PUSH2 0xFCD SWAP1 PUSH2 0x260C JUMP JUMPDEST PUSH1 0x0 PUSH1 0x40 MLOAD DUP1 DUP4 SUB DUP2 DUP6 DUP8 GAS CALL SWAP3 POP POP POP RETURNDATASIZE DUP1 PUSH1 0x0 DUP2 EQ PUSH2 0x100A JUMPI PUSH1 0x40 MLOAD SWAP2 POP PUSH1 0x1F NOT PUSH1 0x3F RETURNDATASIZE ADD AND DUP3 ADD PUSH1 0x40 MSTORE RETURNDATASIZE DUP3 MSTORE RETURNDATASIZE PUSH1 0x0 PUSH1 0x20 DUP5 ADD RETURNDATACOPY PUSH2 0x100F JUMP JUMPDEST PUSH1 0x60 SWAP2 POP JUMPDEST POP POP SWAP1 POP DUP1 PUSH2 0x1053 JUMPI PUSH1 0x40 MLOAD PUSH32 0x8C379A000000000000000000000000000000000000000000000000000000000 DUP2 MSTORE PUSH1 0x4 ADD PUSH2 0x104A SWAP1 PUSH2 0x266D JUMP JUMPDEST PUSH1 0x40 MLOAD DUP1 SWAP2 SUB SWAP1 REVERT JUMPDEST POP JUMPDEST POP POP POP POP POP POP POP POP JUMP JUMPDEST PUSH1 0x0 JUMPDEST PUSH1 0x5 DUP1 SLOAD SWAP1 POP DUP2 LT ISZERO PUSH2 0x11C1 JUMPI TIMESTAMP PUSH1 0x6 PUSH1 0x0 PUSH1 0x5 DUP5 DUP2 SLOAD DUP2 LT PUSH2 0x1088 JUMPI PUSH2 0x1087 PUSH2 0x268D JUMP JUMPDEST JUMPDEST SWAP1 PUSH1 0x0 MSTORE PUSH1 0x20 PUSH1 0x0 KECCAK256 ADD SLOAD DUP2 MSTORE PUSH1 0x20 ADD SWAP1 DUP2 MSTORE PUSH1 0x20 ADD PUSH1 0x0 KECCAK256 PUSH1 0x3 ADD SLOAD LT ISZERO PUSH2 0x11AE JUMPI PUSH32 0x2000000000000000000000000000000000000000000000000000000000000000 PUSH1 0x6 PUSH1 0x0 PUSH1 0x5 DUP5 DUP2 SLOAD DUP2 LT PUSH2 0x10E4 JUMPI PUSH2 0x10E3 PUSH2 0x268D JUMP JUMPDEST JUMPDEST SWAP1 PUSH1 0x0 MSTORE PUSH1 0x20 PUSH1 0x0 KECCAK256 ADD SLOAD DUP2 MSTORE PUSH1 0x20 ADD SWAP1 DUP2 MSTORE PUSH1 0x20 ADD PUSH1 0x0 KECCAK256 PUSH1 0x1 ADD DUP2 SWAP1 SSTORE POP PUSH1 0x0 PUSH1 0x6 PUSH1 0x0 PUSH1 0x5 DUP5 DUP2 SLOAD DUP2 LT PUSH2 0x111E JUMPI PUSH2 0x111D PUSH2 0x268D JUMP JUMPDEST JUMPDEST SWAP1 PUSH1 0x0 MSTORE PUSH1 0x20 PUSH1 0x0 KECCAK256 ADD SLOAD DUP2 MSTORE PUSH1 0x20 ADD SWAP1 DUP2 MSTORE PUSH1 0x20 ADD PUSH1 0x0 KECCAK256 PUSH1 0x3 ADD DUP2 SWAP1 SSTORE POP PUSH1 0x0 PUSH1 0x6 PUSH1 0x0 PUSH1 0x5 DUP5 DUP2 SLOAD DUP2 LT PUSH2 0x1158 JUMPI PUSH2 0x1157 PUSH2 0x268D JUMP JUMPDEST JUMPDEST SWAP1 PUSH1 0x0 MSTORE PUSH1 0x20 PUSH1 0x0 KECCAK256 ADD SLOAD DUP2 MSTORE PUSH1 0x20 ADD SWAP1 DUP2 MSTORE PUSH1 0x20 ADD PUSH1 0x0 KECCAK256 PUSH1 0x4 ADD PUSH1 0x0 PUSH2 0x100 EXP DUP2 SLOAD DUP2 PUSH1 0xFF MUL NOT AND SWAP1 DUP4 ISZERO ISZERO MUL OR SWAP1 SSTORE POP PUSH1 0x5 DUP2 DUP2 SLOAD DUP2 LT PUSH2 0x119F JUMPI PUSH2 0x119E PUSH2 0x268D JUMP JUMPDEST JUMPDEST SWAP1 PUSH1 0x0 MSTORE PUSH1 0x20 PUSH1 0x0 KECCAK256 ADD PUSH1 0x0 SWAP1 SSTORE JUMPDEST DUP1 DUP1 PUSH2 0x11B9 SWAP1 PUSH2 0x2389 JUMP JUMPDEST SWAP2 POP POP PUSH2 0x1062 JUMP JUMPDEST POP JUMP JUMPDEST PUSH1 0x0 PUSH7 0x2386F26FC10000 DUP4 DUP4 SWAP1 POP PUSH2 0x11DC SWAP2 SWAP1 PUSH2 0x26BC JUMP JUMPDEST SWAP1 POP SWAP3 SWAP2 POP POP JUMP JUMPDEST PUSH1 0x4 PUSH1 0x0 SWAP1 SLOAD SWAP1 PUSH2 0x100 EXP SWAP1 DIV PUSH20 0xFFFFFFFFFFFFFFFFFFFFFFFFFFFFFFFFFFFFFFFF AND DUP2 JUMP JUMPDEST PUSH1 0x4 PUSH1 0x0 SWAP1 SLOAD SWAP1 PUSH2 0x100 EXP SWAP1 DIV PUSH20 0xFFFFFFFFFFFFFFFFFFFFFFFFFFFFFFFFFFFFFFFF AND PUSH20 0xFFFFFFFFFFFFFFFFFFFFFFFFFFFFFFFFFFFFFFFF AND CALLER PUSH20 0xFFFFFFFFFFFFFFFFFFFFFFFFFFFFFFFFFFFFFFFF AND EQ PUSH2 0x129A JUMPI PUSH1 0x40 MLOAD PUSH32 0x8C379A000000000000000000000000000000000000000000000000000000000 DUP2 MSTORE PUSH1 0x4 ADD PUSH2 0x1291 SWAP1 PUSH2 0x2443 JUMP JUMPDEST PUSH1 0x40 MLOAD DUP1 SWAP2 SUB SWAP1 REVERT JUMPDEST DUP1 PUSH1 0x2 DUP2 SWAP1 SSTORE POP PUSH32 0x1E3E70F5E6DE3B2BC05175C0C8A4970D959049190BC901BC26B807818EBD84F0 PUSH1 0x2 SLOAD PUSH1 0x40 MLOAD PUSH2 0x12D2 SWAP2 SWAP1 PUSH2 0x1C42 JUMP JUMPDEST PUSH1 0x40 MLOAD DUP1 SWAP2 SUB SWAP1 LOG1 POP JUMP JUMPDEST PUSH32 0x0 DUP2 JUMP JUMPDEST PUSH1 0x3 SLOAD DUP2 JUMP JUMPDEST TIMESTAMP PUSH2 0x133B PUSH3 0x15180 PUSH8 0xFFFFFFFFFFFFFFFF AND PUSH1 0x7 PUSH1 0x0 DUP6 DUP2 MSTORE PUSH1 0x20 ADD SWAP1 DUP2 MSTORE PUSH1 0x20 ADD PUSH1 0x0 KECCAK256 SLOAD PUSH2 0x191A SWAP1 SWAP2 SWAP1 PUSH4 0xFFFFFFFF AND JUMP JUMPDEST LT PUSH2 0x137B JUMPI PUSH1 0x40 MLOAD PUSH32 0x8C379A000000000000000000000000000000000000000000000000000000000 DUP2 MSTORE PUSH1 0x4 ADD PUSH2 0x1372 SWAP1 PUSH2 0x274A JUMP JUMPDEST PUSH1 0x40 MLOAD DUP1 SWAP2 SUB SWAP1 REVERT JUMPDEST TIMESTAMP PUSH1 0x7 PUSH1 0x0 DUP4 DUP2 MSTORE PUSH1 0x20 ADD SWAP1 DUP2 MSTORE PUSH1 0x20 ADD PUSH1 0x0 KECCAK256 DUP2 SWAP1 SSTORE POP POP JUMP JUMPDEST PUSH1 0x6 PUSH1 0x20 MSTORE DUP1 PUSH1 0x0 MSTORE PUSH1 0x40 PUSH1 0x0 KECCAK256 PUSH1 0x0 SWAP2 POP SWAP1 POP DUP1 PUSH1 0x0 ADD PUSH1 0x0 SWAP1 SLOAD SWAP1 PUSH2 0x100 EXP SWAP1 DIV PUSH20 0xFFFFFFFFFFFFFFFFFFFFFFFFFFFFFFFFFFFFFFFF AND SWAP1 DUP1 PUSH1 0x1 ADD SLOAD SWAP1 DUP1 PUSH1 0x2 ADD SLOAD SWAP1 DUP1 PUSH1 0x3 ADD SLOAD SWAP1 DUP1 PUSH1 0x4 ADD PUSH1 0x0 SWAP1 SLOAD SWAP1 PUSH2 0x100 EXP SWAP1 DIV PUSH1 0xFF AND SWAP1 POP DUP6 JUMP JUMPDEST PUSH1 0x4 PUSH1 0x0 SWAP1 SLOAD SWAP1 PUSH2 0x100 EXP SWAP1 DIV PUSH20 0xFFFFFFFFFFFFFFFFFFFFFFFFFFFFFFFFFFFFFFFF AND PUSH20 0xFFFFFFFFFFFFFFFFFFFFFFFFFFFFFFFFFFFFFFFF AND CALLER PUSH20 0xFFFFFFFFFFFFFFFFFFFFFFFFFFFFFFFFFFFFFFFF AND EQ PUSH2 0x1489 JUMPI PUSH1 0x40 MLOAD PUSH32 0x8C379A000000000000000000000000000000000000000000000000000000000 DUP2 MSTORE PUSH1 0x4 ADD PUSH2 0x1480 SWAP1 PUSH2 0x2443 JUMP JUMPDEST PUSH1 0x40 MLOAD DUP1 SWAP2 SUB SWAP1 REVERT JUMPDEST PUSH1 0x4 PUSH1 0x14 SWAP1 SLOAD SWAP1 PUSH2 0x100 EXP SWAP1 DIV PUSH1 0xFF AND ISZERO PUSH2 0x14D9 JUMPI PUSH1 0x40 MLOAD PUSH32 0x8C379A000000000000000000000000000000000000000000000000000000000 DUP2 MSTORE PUSH1 0x4 ADD PUSH2 0x14D0 SWAP1 PUSH2 0x2041 JUMP JUMPDEST PUSH1 0x40 MLOAD DUP1 SWAP2 SUB SWAP1 REVERT JUMPDEST PUSH1 0x0 SELFBALANCE GT PUSH2 0x151C JUMPI PUSH1 0x40 MLOAD PUSH32 0x8C379A000000000000000000000000000000000000000000000000000000000 DUP2 MSTORE PUSH1 0x4 ADD PUSH2 0x1513 SWAP1 PUSH2 0x27B6 JUMP JUMPDEST PUSH1 0x40 MLOAD DUP1 SWAP2 SUB SWAP1 REVERT JUMPDEST CALLER PUSH20 0xFFFFFFFFFFFFFFFFFFFFFFFFFFFFFFFFFFFFFFFF AND PUSH2 0x8FC SELFBALANCE SWAP1 DUP2 ISZERO MUL SWAP1 PUSH1 0x40 MLOAD PUSH1 0x0 PUSH1 0x40 MLOAD DUP1 DUP4 SUB DUP2 DUP6 DUP9 DUP9 CALL SWAP4 POP POP POP POP ISZERO DUP1 ISZERO PUSH2 0x1562 JUMPI RETURNDATASIZE PUSH1 0x0 DUP1 RETURNDATACOPY RETURNDATASIZE PUSH1 0x0 REVERT JUMPDEST POP CALLER PUSH20 0xFFFFFFFFFFFFFFFFFFFFFFFFFFFFFFFFFFFFFFFF AND PUSH32 0x962F9C43E003B8CD7C9D735BAC875CD62DF9CD05A5C5C2EA3981ADBA54A7D093 SELFBALANCE PUSH1 0x40 MLOAD PUSH2 0x15A9 SWAP2 SWAP1 PUSH2 0x1C42 JUMP JUMPDEST PUSH1 0x40 MLOAD DUP1 SWAP2 SUB SWAP1 LOG2 JUMP JUMPDEST PUSH1 0x4 PUSH1 0x0 SWAP1 SLOAD SWAP1 PUSH2 0x100 EXP SWAP1 DIV PUSH20 0xFFFFFFFFFFFFFFFFFFFFFFFFFFFFFFFFFFFFFFFF AND PUSH20 0xFFFFFFFFFFFFFFFFFFFFFFFFFFFFFFFFFFFFFFFF AND CALLER PUSH20 0xFFFFFFFFFFFFFFFFFFFFFFFFFFFFFFFFFFFFFFFF AND EQ PUSH2 0x1643 JUMPI PUSH1 0x40 MLOAD PUSH32 0x8C379A000000000000000000000000000000000000000000000000000000000 DUP2 MSTORE PUSH1 0x4 ADD PUSH2 0x163A SWAP1 PUSH2 0x2443 JUMP JUMPDEST PUSH1 0x40 MLOAD DUP1 SWAP2 SUB SWAP1 REVERT JUMPDEST DUP1 PUSH1 0x4 PUSH1 0x14 PUSH2 0x100 EXP DUP2 SLOAD DUP2 PUSH1 0xFF MUL NOT AND SWAP1 DUP4 ISZERO ISZERO MUL OR SWAP1 SSTORE POP PUSH32 0x70687FDE1B5A9227FA0E9609998E1CC36E9901B7A731CC808A8F137FD30A6AE8 DUP2 PUSH1 0x40 MLOAD PUSH2 0x168C SWAP2 SWAP1 PUSH2 0x194B JUMP JUMPDEST PUSH1 0x40 MLOAD DUP1 SWAP2 SUB SWAP1 LOG1 POP JUMP JUMPDEST PUSH1 0x5 DUP2 DUP2 SLOAD DUP2 LT PUSH2 0x16A7 JUMPI PUSH1 0x0 DUP1 REVERT JUMPDEST SWAP1 PUSH1 0x0 MSTORE PUSH1 0x20 PUSH1 0x0 KECCAK256 ADD PUSH1 0x0 SWAP2 POP SWAP1 POP SLOAD DUP2 JUMP JUMPDEST PUSH1 0x0 DUP3 DUP3 PUSH1 0x40 MLOAD PUSH2 0x16CD SWAP3 SWAP2 SWAP1 PUSH2 0x2091 JUMP JUMPDEST PUSH1 0x40 MLOAD DUP1 SWAP2 SUB SWAP1 KECCAK256 SWAP1 POP PUSH1 0x0 PUSH2 0x16E3 DUP5 DUP5 PUSH2 0x11C4 JUMP JUMPDEST PUSH8 0xFFFFFFFFFFFFFFFF AND SWAP1 POP DUP1 CALLVALUE LT ISZERO PUSH2 0x1732 JUMPI PUSH1 0x40 MLOAD PUSH32 0x8C379A000000000000000000000000000000000000000000000000000000000 DUP2 MSTORE PUSH1 0x4 ADD PUSH2 0x1729 SWAP1 PUSH2 0x2567 JUMP JUMPDEST PUSH1 0x40 MLOAD DUP1 SWAP2 SUB SWAP1 REVERT JUMPDEST CALLER PUSH20 0xFFFFFFFFFFFFFFFFFFFFFFFFFFFFFFFFFFFFFFFF AND PUSH1 0x6 PUSH1 0x0 DUP5 DUP2 MSTORE PUSH1 0x20 ADD SWAP1 DUP2 MSTORE PUSH1 0x20 ADD PUSH1 0x0 KECCAK256 PUSH1 0x0 ADD PUSH1 0x0 SWAP1 SLOAD SWAP1 PUSH2 0x100 EXP SWAP1 DIV PUSH20 0xFFFFFFFFFFFFFFFFFFFFFFFFFFFFFFFFFFFFFFFF AND PUSH20 0xFFFFFFFFFFFFFFFFFFFFFFFFFFFFFFFFFFFFFFFF AND EQ PUSH2 0x17D6 JUMPI PUSH1 0x40 MLOAD PUSH32 0x8C379A000000000000000000000000000000000000000000000000000000000 DUP2 MSTORE PUSH1 0x4 ADD PUSH2 0x17CD SWAP1 PUSH2 0x2822 JUMP JUMPDEST PUSH1 0x40 MLOAD DUP1 SWAP2 SUB SWAP1 REVERT JUMPDEST PUSH1 0x2 SLOAD PUSH1 0x6 PUSH1 0x0 DUP5 DUP2 MSTORE PUSH1 0x20 ADD SWAP1 DUP2 MSTORE PUSH1 0x20 ADD PUSH1 0x0 KECCAK256 PUSH1 0x3 ADD PUSH1 0x0 DUP3 DUP3 SLOAD PUSH2 0x17FE SWAP2 SWAP1 PUSH2 0x2842 JUMP JUMPDEST SWAP3 POP POP DUP2 SWAP1 SSTORE POP DUP2 PUSH32 0x5FAB56E4692BEF0CB846328AB44DC5C82CBEAB1F825083D2AB108690AF108F2F PUSH1 0x6 PUSH1 0x0 DUP6 DUP2 MSTORE PUSH1 0x20 ADD SWAP1 DUP2 MSTORE PUSH1 0x20 ADD PUSH1 0x0 KECCAK256 PUSH1 0x3 ADD SLOAD PUSH1 0x40 MLOAD PUSH2 0x184B SWAP2 SWAP1 PUSH2 0x1C42 JUMP JUMPDEST PUSH1 0x40 MLOAD DUP1 SWAP2 SUB SWAP1 LOG2 DUP1 CALLVALUE GT ISZERO PUSH2 0x1914 JUMPI PUSH1 0x0 CALLER PUSH20 0xFFFFFFFFFFFFFFFFFFFFFFFFFFFFFFFFFFFFFFFF AND DUP3 CALLVALUE PUSH2 0x1880 SWAP2 SWAP1 PUSH2 0x2355 JUMP JUMPDEST PUSH1 0x40 MLOAD PUSH2 0x188C SWAP1 PUSH2 0x260C JUMP JUMPDEST PUSH1 0x0 PUSH1 0x40 MLOAD DUP1 DUP4 SUB DUP2 DUP6 DUP8 GAS CALL SWAP3 POP POP POP RETURNDATASIZE DUP1 PUSH1 0x0 DUP2 EQ PUSH2 0x18C9 JUMPI PUSH1 0x40 MLOAD SWAP2 POP PUSH1 0x1F NOT PUSH1 0x3F RETURNDATASIZE ADD AND DUP3 ADD PUSH1 0x40 MSTORE RETURNDATASIZE DUP3 MSTORE RETURNDATASIZE PUSH1 0x0 PUSH1 0x20 DUP5 ADD RETURNDATACOPY PUSH2 0x18CE JUMP JUMPDEST PUSH1 0x60 SWAP2 POP JUMPDEST POP POP SWAP1 POP DUP1 PUSH2 0x1912 JUMPI PUSH1 0x40 MLOAD PUSH32 0x8C379A000000000000000000000000000000000000000000000000000000000 DUP2 MSTORE PUSH1 0x4 ADD PUSH2 0x1909 SWAP1 PUSH2 0x266D JUMP JUMPDEST PUSH1 0x40 MLOAD DUP1 SWAP2 SUB SWAP1 REVERT JUMPDEST POP JUMPDEST POP POP POP POP JUMP JUMPDEST PUSH1 0x0 DUP2 DUP4 PUSH2 0x1928 SWAP2 SWAP1 PUSH2 0x2842 JUMP JUMPDEST SWAP1 POP SWAP3 SWAP2 POP POP JUMP JUMPDEST PUSH1 0x0 DUP2 ISZERO ISZERO SWAP1 POP SWAP2 SWAP1 POP JUMP JUMPDEST PUSH2 0x1945 DUP2 PUSH2 0x1930 JUMP JUMPDEST DUP3 MSTORE POP POP JUMP JUMPDEST PUSH1 0x0 PUSH1 0x20 DUP3 ADD SWAP1 POP PUSH2 0x1960 PUSH1 0x0 DUP4 ADD DUP5 PUSH2 0x193C JUMP JUMPDEST SWAP3 SWAP2 POP POP JUMP JUMPDEST PUSH1 0x0 PUSH1 0x40 MLOAD SWAP1 POP SWAP1 JUMP JUMPDEST PUSH1 0x0 DUP1 REVERT JUMPDEST PUSH1 0x0 DUP1 REVERT JUMPDEST PUSH1 0x0 DUP1 REVERT JUMPDEST PUSH1 0x0 DUP1 REVERT JUMPDEST PUSH1 0x0 DUP1 REVERT JUMPDEST PUSH1 0x0 DUP1 DUP4 PUSH1 0x1F DUP5 ADD SLT PUSH2 0x199F JUMPI PUSH2 0x199E PUSH2 0x197A JUMP JUMPDEST JUMPDEST DUP3 CALLDATALOAD SWAP1 POP PUSH8 0xFFFFFFFFFFFFFFFF DUP2 GT ISZERO PUSH2 0x19BC JUMPI PUSH2 0x19BB PUSH2 0x197F JUMP JUMPDEST JUMPDEST PUSH1 0x20 DUP4 ADD SWAP2 POP DUP4 PUSH1 0x1 DUP3 MUL DUP4 ADD GT ISZERO PUSH2 0x19D8 JUMPI PUSH2 0x19D7 PUSH2 0x1984 JUMP JUMPDEST JUMPDEST SWAP3 POP SWAP3 SWAP1 POP JUMP JUMPDEST PUSH1 0x0 DUP1 PUSH1 0x20 DUP4 DUP6 SUB SLT ISZERO PUSH2 0x19F6 JUMPI PUSH2 0x19F5 PUSH2 0x1970 JUMP JUMPDEST JUMPDEST PUSH1 0x0 DUP4 ADD CALLDATALOAD PUSH8 0xFFFFFFFFFFFFFFFF DUP2 GT ISZERO PUSH2 0x1A14 JUMPI PUSH2 0x1A13 PUSH2 0x1975 JUMP JUMPDEST JUMPDEST PUSH2 0x1A20 DUP6 DUP3 DUP7 ADD PUSH2 0x1989 JUMP JUMPDEST SWAP3 POP SWAP3 POP POP SWAP3 POP SWAP3 SWAP1 POP JUMP JUMPDEST PUSH1 0x0 DUP1 REVERT JUMPDEST PUSH1 0x0 PUSH1 0x1F NOT PUSH1 0x1F DUP4 ADD AND SWAP1 POP SWAP2 SWAP1 POP JUMP JUMPDEST PUSH32 0x4E487B7100000000000000000000000000000000000000000000000000000000 PUSH1 0x0 MSTORE PUSH1 0x41 PUSH1 0x4 MSTORE PUSH1 0x24 PUSH1 0x0 REVERT JUMPDEST PUSH2 0x1A7A DUP3 PUSH2 0x1A31 JUMP JUMPDEST DUP2 ADD DUP2 DUP2 LT PUSH8 0xFFFFFFFFFFFFFFFF DUP3 GT OR ISZERO PUSH2 0x1A99 JUMPI PUSH2 0x1A98 PUSH2 0x1A42 JUMP JUMPDEST JUMPDEST DUP1 PUSH1 0x40 MSTORE POP POP POP JUMP JUMPDEST PUSH1 0x0 PUSH2 0x1AAC PUSH2 0x1966 JUMP JUMPDEST SWAP1 POP PUSH2 0x1AB8 DUP3 DUP3 PUSH2 0x1A71 JUMP JUMPDEST SWAP2 SWAP1 POP JUMP JUMPDEST PUSH1 0x0 PUSH8 0xFFFFFFFFFFFFFFFF DUP3 GT ISZERO PUSH2 0x1AD8 JUMPI PUSH2 0x1AD7 PUSH2 0x1A42 JUMP JUMPDEST JUMPDEST PUSH2 0x1AE1 DUP3 PUSH2 0x1A31 JUMP JUMPDEST SWAP1 POP PUSH1 0x20 DUP2 ADD SWAP1 POP SWAP2 SWAP1 POP JUMP JUMPDEST DUP3 DUP2 DUP4 CALLDATACOPY PUSH1 0x0 DUP4 DUP4 ADD MSTORE POP POP POP JUMP JUMPDEST PUSH1 0x0 PUSH2 0x1B10 PUSH2 0x1B0B DUP5 PUSH2 0x1ABD JUMP JUMPDEST PUSH2 0x1AA2 JUMP JUMPDEST SWAP1 POP DUP3 DUP2 MSTORE PUSH1 0x20 DUP2 ADD DUP5 DUP5 DUP5 ADD GT ISZERO PUSH2 0x1B2C JUMPI PUSH2 0x1B2B PUSH2 0x1A2C JUMP JUMPDEST JUMPDEST PUSH2 0x1B37 DUP5 DUP3 DUP6 PUSH2 0x1AEE JUMP JUMPDEST POP SWAP4 SWAP3 POP POP POP JUMP JUMPDEST PUSH1 0x0 DUP3 PUSH1 0x1F DUP4 ADD SLT PUSH2 0x1B54 JUMPI PUSH2 0x1B53 PUSH2 0x197A JUMP JUMPDEST JUMPDEST DUP2 CALLDATALOAD PUSH2 0x1B64 DUP5 DUP3 PUSH1 0x20 DUP7 ADD PUSH2 0x1AFD JUMP JUMPDEST SWAP2 POP POP SWAP3 SWAP2 POP POP JUMP JUMPDEST PUSH1 0x0 DUP2 SWAP1 POP SWAP2 SWAP1 POP JUMP JUMPDEST PUSH2 0x1B80 DUP2 PUSH2 0x1B6D JUMP JUMPDEST DUP2 EQ PUSH2 0x1B8B JUMPI PUSH1 0x0 DUP1 REVERT JUMPDEST POP JUMP JUMPDEST PUSH1 0x0 DUP2 CALLDATALOAD SWAP1 POP PUSH2 0x1B9D DUP2 PUSH2 0x1B77 JUMP JUMPDEST SWAP3 SWAP2 POP POP JUMP JUMPDEST PUSH1 0x0 DUP1 PUSH1 0x40 DUP4 DUP6 SUB SLT ISZERO PUSH2 0x1BBA JUMPI PUSH2 0x1BB9 PUSH2 0x1970 JUMP JUMPDEST JUMPDEST PUSH1 0x0 DUP4 ADD CALLDATALOAD PUSH8 0xFFFFFFFFFFFFFFFF DUP2 GT ISZERO PUSH2 0x1BD8 JUMPI PUSH2 0x1BD7 PUSH2 0x1975 JUMP JUMPDEST JUMPDEST PUSH2 0x1BE4 DUP6 DUP3 DUP7 ADD PUSH2 0x1B3F JUMP JUMPDEST SWAP3 POP POP PUSH1 0x20 PUSH2 0x1BF5 DUP6 DUP3 DUP7 ADD PUSH2 0x1B8E JUMP JUMPDEST SWAP2 POP POP SWAP3 POP SWAP3 SWAP1 POP JUMP JUMPDEST PUSH2 0x1C08 DUP2 PUSH2 0x1B6D JUMP JUMPDEST DUP3 MSTORE POP POP JUMP JUMPDEST PUSH1 0x0 PUSH1 0x20 DUP3 ADD SWAP1 POP PUSH2 0x1C23 PUSH1 0x0 DUP4 ADD DUP5 PUSH2 0x1BFF JUMP JUMPDEST SWAP3 SWAP2 POP POP JUMP JUMPDEST PUSH1 0x0 DUP2 SWAP1 POP SWAP2 SWAP1 POP JUMP JUMPDEST PUSH2 0x1C3C DUP2 PUSH2 0x1C29 JUMP JUMPDEST DUP3 MSTORE POP POP JUMP JUMPDEST PUSH1 0x0 PUSH1 0x20 DUP3 ADD SWAP1 POP PUSH2 0x1C57 PUSH1 0x0 DUP4 ADD DUP5 PUSH2 0x1C33 JUMP JUMPDEST SWAP3 SWAP2 POP POP JUMP JUMPDEST PUSH1 0x0 PUSH1 0x20 DUP3 DUP5 SUB SLT ISZERO PUSH2 0x1C73 JUMPI PUSH2 0x1C72 PUSH2 0x1970 JUMP JUMPDEST JUMPDEST PUSH1 0x0 PUSH2 0x1C81 DUP5 DUP3 DUP6 ADD PUSH2 0x1B8E JUMP JUMPDEST SWAP2 POP POP SWAP3 SWAP2 POP POP JUMP JUMPDEST PUSH1 0x0 PUSH20 0xFFFFFFFFFFFFFFFFFFFFFFFFFFFFFFFFFFFFFFFF DUP3 AND SWAP1 POP SWAP2 SWAP1 POP JUMP JUMPDEST PUSH1 0x0 PUSH2 0x1CB5 DUP3 PUSH2 0x1C8A JUMP JUMPDEST SWAP1 POP SWAP2 SWAP1 POP JUMP JUMPDEST PUSH2 0x1CC5 DUP2 PUSH2 0x1CAA JUMP JUMPDEST DUP3 MSTORE POP POP JUMP JUMPDEST PUSH1 0x0 PUSH1 0x20 DUP3 ADD SWAP1 POP PUSH2 0x1CE0 PUSH1 0x0 DUP4 ADD DUP5 PUSH2 0x1CBC JUMP JUMPDEST SWAP3 SWAP2 POP POP JUMP JUMPDEST PUSH1 0x0 DUP1 DUP4 PUSH1 0x1F DUP5 ADD SLT PUSH2 0x1CFC JUMPI PUSH2 0x1CFB PUSH2 0x197A JUMP JUMPDEST JUMPDEST DUP3 CALLDATALOAD SWAP1 POP PUSH8 0xFFFFFFFFFFFFFFFF DUP2 GT ISZERO PUSH2 0x1D19 JUMPI PUSH2 0x1D18 PUSH2 0x197F JUMP JUMPDEST JUMPDEST PUSH1 0x20 DUP4 ADD SWAP2 POP DUP4 PUSH1 0x1 DUP3 MUL DUP4 ADD GT ISZERO PUSH2 0x1D35 JUMPI PUSH2 0x1D34 PUSH2 0x1984 JUMP JUMPDEST JUMPDEST SWAP3 POP SWAP3 SWAP1 POP JUMP JUMPDEST PUSH1 0x0 DUP1 PUSH1 0x20 DUP4 DUP6 SUB SLT ISZERO PUSH2 0x1D53 JUMPI PUSH2 0x1D52 PUSH2 0x1970 JUMP JUMPDEST JUMPDEST PUSH1 0x0 DUP4 ADD CALLDATALOAD PUSH8 0xFFFFFFFFFFFFFFFF DUP2 GT ISZERO PUSH2 0x1D71 JUMPI PUSH2 0x1D70 PUSH2 0x1975 JUMP JUMPDEST JUMPDEST PUSH2 0x1D7D DUP6 DUP3 DUP7 ADD PUSH2 0x1CE6 JUMP JUMPDEST SWAP3 POP SWAP3 POP POP SWAP3 POP SWAP3 SWAP1 POP JUMP JUMPDEST PUSH1 0x0 DUP2 MLOAD SWAP1 POP SWAP2 SWAP1 POP JUMP JUMPDEST PUSH1 0x0 DUP3 DUP3 MSTORE PUSH1 0x20 DUP3 ADD SWAP1 POP SWAP3 SWAP2 POP POP JUMP JUMPDEST PUSH1 0x0 JUMPDEST DUP4 DUP2 LT ISZERO PUSH2 0x1DC3 JUMPI DUP1 DUP3 ADD MLOAD DUP2 DUP5 ADD MSTORE PUSH1 0x20 DUP2 ADD SWAP1 POP PUSH2 0x1DA8 JUMP JUMPDEST DUP4 DUP2 GT ISZERO PUSH2 0x1DD2 JUMPI PUSH1 0x0 DUP5 DUP5 ADD MSTORE JUMPDEST POP POP POP POP JUMP JUMPDEST PUSH1 0x0 PUSH2 0x1DE3 DUP3 PUSH2 0x1D89 JUMP JUMPDEST PUSH2 0x1DED DUP2 DUP6 PUSH2 0x1D94 JUMP JUMPDEST SWAP4 POP PUSH2 0x1DFD DUP2 DUP6 PUSH1 0x20 DUP7 ADD PUSH2 0x1DA5 JUMP JUMPDEST PUSH2 0x1E06 DUP2 PUSH2 0x1A31 JUMP JUMPDEST DUP5 ADD SWAP2 POP POP SWAP3 SWAP2 POP POP JUMP JUMPDEST PUSH1 0x0 PUSH1 0x40 DUP3 ADD SWAP1 POP PUSH2 0x1E26 PUSH1 0x0 DUP4 ADD DUP6 PUSH2 0x193C JUMP JUMPDEST DUP2 DUP2 SUB PUSH1 0x20 DUP4 ADD MSTORE PUSH2 0x1E38 DUP2 DUP5 PUSH2 0x1DD8 JUMP JUMPDEST SWAP1 POP SWAP4 SWAP3 POP POP POP JUMP JUMPDEST PUSH1 0x0 DUP1 PUSH1 0x0 PUSH1 0x40 DUP5 DUP7 SUB SLT ISZERO PUSH2 0x1E5A JUMPI PUSH2 0x1E59 PUSH2 0x1970 JUMP JUMPDEST JUMPDEST PUSH1 0x0 DUP5 ADD CALLDATALOAD PUSH8 0xFFFFFFFFFFFFFFFF DUP2 GT ISZERO PUSH2 0x1E78 JUMPI PUSH2 0x1E77 PUSH2 0x1975 JUMP JUMPDEST JUMPDEST PUSH2 0x1E84 DUP7 DUP3 DUP8 ADD PUSH2 0x1989 JUMP JUMPDEST SWAP4 POP SWAP4 POP POP PUSH1 0x20 PUSH2 0x1E97 DUP7 DUP3 DUP8 ADD PUSH2 0x1B8E JUMP JUMPDEST SWAP2 POP POP SWAP3 POP SWAP3 POP SWAP3 JUMP JUMPDEST PUSH1 0x0 PUSH8 0xFFFFFFFFFFFFFFFF DUP3 AND SWAP1 POP SWAP2 SWAP1 POP JUMP JUMPDEST PUSH2 0x1EBE DUP2 PUSH2 0x1EA1 JUMP JUMPDEST DUP3 MSTORE POP POP JUMP JUMPDEST PUSH1 0x0 PUSH1 0x20 DUP3 ADD SWAP1 POP PUSH2 0x1ED9 PUSH1 0x0 DUP4 ADD DUP5 PUSH2 0x1EB5 JUMP JUMPDEST SWAP3 SWAP2 POP POP JUMP JUMPDEST PUSH2 0x1EE8 DUP2 PUSH2 0x1C29 JUMP JUMPDEST DUP2 EQ PUSH2 0x1EF3 JUMPI PUSH1 0x0 DUP1 REVERT JUMPDEST POP JUMP JUMPDEST PUSH1 0x0 DUP2 CALLDATALOAD SWAP1 POP PUSH2 0x1F05 DUP2 PUSH2 0x1EDF JUMP JUMPDEST SWAP3 SWAP2 POP POP JUMP JUMPDEST PUSH1 0x0 PUSH1 0x20 DUP3 DUP5 SUB SLT ISZERO PUSH2 0x1F21 JUMPI PUSH2 0x1F20 PUSH2 0x1970 JUMP JUMPDEST JUMPDEST PUSH1 0x0 PUSH2 0x1F2F DUP5 DUP3 DUP6 ADD PUSH2 0x1EF6 JUMP JUMPDEST SWAP2 POP POP SWAP3 SWAP2 POP POP JUMP JUMPDEST PUSH1 0x0 PUSH1 0xA0 DUP3 ADD SWAP1 POP PUSH2 0x1F4D PUSH1 0x0 DUP4 ADD DUP9 PUSH2 0x1CBC JUMP JUMPDEST PUSH2 0x1F5A PUSH1 0x20 DUP4 ADD DUP8 PUSH2 0x1BFF JUMP JUMPDEST PUSH2 0x1F67 PUSH1 0x40 DUP4 ADD DUP7 PUSH2 0x1C33 JUMP JUMPDEST PUSH2 0x1F74 PUSH1 0x60 DUP4 ADD DUP6 PUSH2 0x1C33 JUMP JUMPDEST PUSH2 0x1F81 PUSH1 0x80 DUP4 ADD DUP5 PUSH2 0x193C JUMP JUMPDEST SWAP7 SWAP6 POP POP POP POP POP POP JUMP JUMPDEST PUSH2 0x1F94 DUP2 PUSH2 0x1930 JUMP JUMPDEST DUP2 EQ PUSH2 0x1F9F JUMPI PUSH1 0x0 DUP1 REVERT JUMPDEST POP JUMP JUMPDEST PUSH1 0x0 DUP2 CALLDATALOAD SWAP1 POP PUSH2 0x1FB1 DUP2 PUSH2 0x1F8B JUMP JUMPDEST SWAP3 SWAP2 POP POP JUMP JUMPDEST PUSH1 0x0 PUSH1 0x20 DUP3 DUP5 SUB SLT ISZERO PUSH2 0x1FCD JUMPI PUSH2 0x1FCC PUSH2 0x1970 JUMP JUMPDEST JUMPDEST PUSH1 0x0 PUSH2 0x1FDB DUP5 DUP3 DUP6 ADD PUSH2 0x1FA2 JUMP JUMPDEST SWAP2 POP POP SWAP3 SWAP2 POP POP JUMP JUMPDEST PUSH1 0x0 DUP3 DUP3 MSTORE PUSH1 0x20 DUP3 ADD SWAP1 POP SWAP3 SWAP2 POP POP JUMP JUMPDEST PUSH32 0x4163636F756E74206973206C6F636B6564000000000000000000000000000000 PUSH1 0x0 DUP3 ADD MSTORE POP JUMP JUMPDEST PUSH1 0x0 PUSH2 0x202B PUSH1 0x11 DUP4 PUSH2 0x1FE4 JUMP JUMPDEST SWAP2 POP PUSH2 0x2036 DUP3 PUSH2 0x1FF5 JUMP JUMPDEST PUSH1 0x20 DUP3 ADD SWAP1 POP SWAP2 SWAP1 POP JUMP JUMPDEST PUSH1 0x0 PUSH1 0x20 DUP3 ADD SWAP1 POP DUP2 DUP2 SUB PUSH1 0x0 DUP4 ADD MSTORE PUSH2 0x205A DUP2 PUSH2 0x201E JUMP JUMPDEST SWAP1 POP SWAP2 SWAP1 POP JUMP JUMPDEST PUSH1 0x0 DUP2 SWAP1 POP SWAP3 SWAP2 POP POP JUMP JUMPDEST PUSH1 0x0 PUSH2 0x2078 DUP4 DUP6 PUSH2 0x2061 JUMP JUMPDEST SWAP4 POP PUSH2 0x2085 DUP4 DUP6 DUP5 PUSH2 0x1AEE JUMP JUMPDEST DUP3 DUP5 ADD SWAP1 POP SWAP4 SWAP3 POP POP POP JUMP JUMPDEST PUSH1 0x0 PUSH2 0x209E DUP3 DUP5 DUP7 PUSH2 0x206C JUMP JUMPDEST SWAP2 POP DUP2 SWAP1 POP SWAP4 SWAP3 POP POP POP JUMP JUMPDEST PUSH32 0x436F6E7472616374206973206C6F636B65640000000000000000000000000000 PUSH1 0x0 DUP3 ADD MSTORE POP JUMP JUMPDEST PUSH1 0x0 PUSH2 0x20E0 PUSH1 0x12 DUP4 PUSH2 0x1FE4 JUMP JUMPDEST SWAP2 POP PUSH2 0x20EB DUP3 PUSH2 0x20AA JUMP JUMPDEST PUSH1 0x20 DUP3 ADD SWAP1 POP SWAP2 SWAP1 POP JUMP JUMPDEST PUSH1 0x0 PUSH1 0x20 DUP3 ADD SWAP1 POP DUP2 DUP2 SUB PUSH1 0x0 DUP4 ADD MSTORE PUSH2 0x210F DUP2 PUSH2 0x20D3 JUMP JUMPDEST SWAP1 POP SWAP2 SWAP1 POP JUMP JUMPDEST PUSH32 0x4F6E6C79206F776E65722063616E207769746864726177000000000000000000 PUSH1 0x0 DUP3 ADD MSTORE POP JUMP JUMPDEST PUSH1 0x0 PUSH2 0x214C PUSH1 0x17 DUP4 PUSH2 0x1FE4 JUMP JUMPDEST SWAP2 POP PUSH2 0x2157 DUP3 PUSH2 0x2116 JUMP JUMPDEST PUSH1 0x20 DUP3 ADD SWAP1 POP SWAP2 SWAP1 POP JUMP JUMPDEST PUSH1 0x0 PUSH1 0x20 DUP3 ADD SWAP1 POP DUP2 DUP2 SUB PUSH1 0x0 DUP4 ADD MSTORE PUSH2 0x217B DUP2 PUSH2 0x213F JUMP JUMPDEST SWAP1 POP SWAP2 SWAP1 POP JUMP JUMPDEST PUSH32 0x546F6F206561726C790000000000000000000000000000000000000000000000 PUSH1 0x0 DUP3 ADD MSTORE POP JUMP JUMPDEST PUSH1 0x0 PUSH2 0x21B8 PUSH1 0x9 DUP4 PUSH2 0x1FE4 JUMP JUMPDEST SWAP2 POP PUSH2 0x21C3 DUP3 PUSH2 0x2182 JUMP JUMPDEST PUSH1 0x20 DUP3 ADD SWAP1 POP SWAP2 SWAP1 POP JUMP JUMPDEST PUSH1 0x0 PUSH1 0x20 DUP3 ADD SWAP1 POP DUP2 DUP2 SUB PUSH1 0x0 DUP4 ADD MSTORE PUSH2 0x21E7 DUP2 PUSH2 0x21AB JUMP JUMPDEST SWAP1 POP SWAP2 SWAP1 POP JUMP JUMPDEST PUSH32 0x4E616D65207365727669636520696E20616374696F6E2C20776169742074696C PUSH1 0x0 DUP3 ADD MSTORE PUSH32 0x6C20657870697265000000000000000000000000000000000000000000000000 PUSH1 0x20 DUP3 ADD MSTORE POP JUMP JUMPDEST PUSH1 0x0 PUSH2 0x224A PUSH1 0x28 DUP4 PUSH2 0x1FE4 JUMP JUMPDEST SWAP2 POP PUSH2 0x2255 DUP3 PUSH2 0x21EE JUMP JUMPDEST PUSH1 0x40 DUP3 ADD SWAP1 POP SWAP2 SWAP1 POP JUMP JUMPDEST PUSH1 0x0 PUSH1 0x20 DUP3 ADD SWAP1 POP DUP2 DUP2 SUB PUSH1 0x0 DUP4 ADD MSTORE PUSH2 0x2279 DUP2 PUSH2 0x223D JUMP JUMPDEST SWAP1 POP SWAP2 SWAP1 POP JUMP JUMPDEST PUSH1 0x0 DUP2 SWAP1 POP SWAP2 SWAP1 POP JUMP JUMPDEST PUSH2 0x229B PUSH2 0x2296 DUP3 PUSH2 0x1B6D JUMP JUMPDEST PUSH2 0x2280 JUMP JUMPDEST DUP3 MSTORE POP POP JUMP JUMPDEST PUSH1 0x0 DUP2 PUSH1 0x60 SHL SWAP1 POP SWAP2 SWAP1 POP JUMP JUMPDEST PUSH1 0x0 PUSH2 0x22B9 DUP3 PUSH2 0x22A1 JUMP JUMPDEST SWAP1 POP SWAP2 SWAP1 POP JUMP JUMPDEST PUSH1 0x0 PUSH2 0x22CB DUP3 PUSH2 0x22AE JUMP JUMPDEST SWAP1 POP SWAP2 SWAP1 POP JUMP JUMPDEST PUSH2 0x22E3 PUSH2 0x22DE DUP3 PUSH2 0x1CAA JUMP JUMPDEST PUSH2 0x22C0 JUMP JUMPDEST DUP3 MSTORE POP POP JUMP JUMPDEST PUSH1 0x0 PUSH2 0x22F5 DUP3 DUP7 PUSH2 0x228A JUMP JUMPDEST PUSH1 0x20 DUP3 ADD SWAP2 POP PUSH2 0x2305 DUP3 DUP6 PUSH2 0x22D2 JUMP JUMPDEST PUSH1 0x14 DUP3 ADD SWAP2 POP PUSH2 0x2315 DUP3 DUP5 PUSH2 0x228A JUMP JUMPDEST PUSH1 0x20 DUP3 ADD SWAP2 POP DUP2 SWAP1 POP SWAP5 SWAP4 POP POP POP POP JUMP JUMPDEST PUSH32 0x4E487B7100000000000000000000000000000000000000000000000000000000 PUSH1 0x0 MSTORE PUSH1 0x11 PUSH1 0x4 MSTORE PUSH1 0x24 PUSH1 0x0 REVERT JUMPDEST PUSH1 0x0 PUSH2 0x2360 DUP3 PUSH2 0x1C29 JUMP JUMPDEST SWAP2 POP PUSH2 0x236B DUP4 PUSH2 0x1C29 JUMP JUMPDEST SWAP3 POP DUP3 DUP3 LT ISZERO PUSH2 0x237E JUMPI PUSH2 0x237D PUSH2 0x2326 JUMP JUMPDEST JUMPDEST DUP3 DUP3 SUB SWAP1 POP SWAP3 SWAP2 POP POP JUMP JUMPDEST PUSH1 0x0 PUSH2 0x2394 DUP3 PUSH2 0x1C29 JUMP JUMPDEST SWAP2 POP PUSH32 0xFFFFFFFFFFFFFFFFFFFFFFFFFFFFFFFFFFFFFFFFFFFFFFFFFFFFFFFFFFFFFFFF DUP3 SUB PUSH2 0x23C6 JUMPI PUSH2 0x23C5 PUSH2 0x2326 JUMP JUMPDEST JUMPDEST PUSH1 0x1 DUP3 ADD SWAP1 POP SWAP2 SWAP1 POP JUMP JUMPDEST PUSH32 0x43616C6C6572206973206E6F74206F776E6572206F6620726567697374727920 PUSH1 0x0 DUP3 ADD MSTORE PUSH32 0x7365727669636500000000000000000000000000000000000000000000000000 PUSH1 0x20 DUP3 ADD MSTORE POP JUMP JUMPDEST PUSH1 0x0 PUSH2 0x242D PUSH1 0x27 DUP4 PUSH2 0x1FE4 JUMP JUMPDEST SWAP2 POP PUSH2 0x2438 DUP3 PUSH2 0x23D1 JUMP JUMPDEST PUSH1 0x40 DUP3 ADD SWAP1 POP SWAP2 SWAP1 POP JUMP JUMPDEST PUSH1 0x0 PUSH1 0x20 DUP3 ADD SWAP1 POP DUP2 DUP2 SUB PUSH1 0x0 DUP4 ADD MSTORE PUSH2 0x245C DUP2 PUSH2 0x2420 JUMP JUMPDEST SWAP1 POP SWAP2 SWAP1 POP JUMP JUMPDEST PUSH32 0x6E616D65206973206E6F7420617661696C61626C652C20747279207769746820 PUSH1 0x0 DUP3 ADD MSTORE PUSH32 0x616E6F74686572206E616D650000000000000000000000000000000000000000 PUSH1 0x20 DUP3 ADD MSTORE POP JUMP JUMPDEST PUSH1 0x0 PUSH2 0x24BF PUSH1 0x2C DUP4 PUSH2 0x1FE4 JUMP JUMPDEST SWAP2 POP PUSH2 0x24CA DUP3 PUSH2 0x2463 JUMP JUMPDEST PUSH1 0x40 DUP3 ADD SWAP1 POP SWAP2 SWAP1 POP JUMP JUMPDEST PUSH1 0x0 PUSH1 0x20 DUP3 ADD SWAP1 POP DUP2 DUP2 SUB PUSH1 0x0 DUP4 ADD MSTORE PUSH2 0x24EE DUP2 PUSH2 0x24B2 JUMP JUMPDEST SWAP1 POP SWAP2 SWAP1 POP JUMP JUMPDEST PUSH32 0x4E6F7420656E6F7567682076616C756520746F207265676973746572206E616D PUSH1 0x0 DUP3 ADD MSTORE PUSH32 0x6500000000000000000000000000000000000000000000000000000000000000 PUSH1 0x20 DUP3 ADD MSTORE POP JUMP JUMPDEST PUSH1 0x0 PUSH2 0x2551 PUSH1 0x21 DUP4 PUSH2 0x1FE4 JUMP JUMPDEST SWAP2 POP PUSH2 0x255C DUP3 PUSH2 0x24F5 JUMP JUMPDEST PUSH1 0x40 DUP3 ADD SWAP1 POP SWAP2 SWAP1 POP JUMP JUMPDEST PUSH1 0x0 PUSH1 0x20 DUP3 ADD SWAP1 POP DUP2 DUP2 SUB PUSH1 0x0 DUP4 ADD MSTORE PUSH2 0x2580 DUP2 PUSH2 0x2544 JUMP JUMPDEST SWAP1 POP SWAP2 SWAP1 POP JUMP JUMPDEST PUSH1 0x0 PUSH2 0x2593 DUP4 DUP6 PUSH2 0x1FE4 JUMP JUMPDEST SWAP4 POP PUSH2 0x25A0 DUP4 DUP6 DUP5 PUSH2 0x1AEE JUMP JUMPDEST PUSH2 0x25A9 DUP4 PUSH2 0x1A31 JUMP JUMPDEST DUP5 ADD SWAP1 POP SWAP4 SWAP3 POP POP POP JUMP JUMPDEST PUSH1 0x0 PUSH1 0x40 DUP3 ADD SWAP1 POP DUP2 DUP2 SUB PUSH1 0x0 DUP4 ADD MSTORE PUSH2 0x25CF DUP2 DUP6 DUP8 PUSH2 0x2587 JUMP JUMPDEST SWAP1 POP PUSH2 0x25DE PUSH1 0x20 DUP4 ADD DUP5 PUSH2 0x1C33 JUMP JUMPDEST SWAP5 SWAP4 POP POP POP POP JUMP JUMPDEST POP JUMP JUMPDEST PUSH1 0x0 PUSH2 0x25F6 PUSH1 0x0 DUP4 PUSH2 0x2061 JUMP JUMPDEST SWAP2 POP PUSH2 0x2601 DUP3 PUSH2 0x25E6 JUMP JUMPDEST PUSH1 0x0 DUP3 ADD SWAP1 POP SWAP2 SWAP1 POP JUMP JUMPDEST PUSH1 0x0 PUSH2 0x2617 DUP3 PUSH2 0x25E9 JUMP JUMPDEST SWAP2 POP DUP2 SWAP1 POP SWAP2 SWAP1 POP JUMP JUMPDEST PUSH32 0x726566756E64206E6F7420737563636365737366756C00000000000000000000 PUSH1 0x0 DUP3 ADD MSTORE POP JUMP JUMPDEST PUSH1 0x0 PUSH2 0x2657 PUSH1 0x16 DUP4 PUSH2 0x1FE4 JUMP JUMPDEST SWAP2 POP PUSH2 0x2662 DUP3 PUSH2 0x2621 JUMP JUMPDEST PUSH1 0x20 DUP3 ADD SWAP1 POP SWAP2 SWAP1 POP JUMP JUMPDEST PUSH1 0x0 PUSH1 0x20 DUP3 ADD SWAP1 POP DUP2 DUP2 SUB PUSH1 0x0 DUP4 ADD MSTORE PUSH2 0x2686 DUP2 PUSH2 0x264A JUMP JUMPDEST SWAP1 POP SWAP2 SWAP1 POP JUMP JUMPDEST PUSH32 0x4E487B7100000000000000000000000000000000000000000000000000000000 PUSH1 0x0 MSTORE PUSH1 0x32 PUSH1 0x4 MSTORE PUSH1 0x24 PUSH1 0x0 REVERT JUMPDEST PUSH1 0x0 PUSH2 0x26C7 DUP3 PUSH2 0x1EA1 JUMP JUMPDEST SWAP2 POP PUSH2 0x26D2 DUP4 PUSH2 0x1EA1 JUMP JUMPDEST SWAP3 POP DUP2 PUSH8 0xFFFFFFFFFFFFFFFF DIV DUP4 GT DUP3 ISZERO ISZERO AND ISZERO PUSH2 0x26F3 JUMPI PUSH2 0x26F2 PUSH2 0x2326 JUMP JUMPDEST JUMPDEST DUP3 DUP3 MUL SWAP1 POP SWAP3 SWAP2 POP POP JUMP JUMPDEST PUSH32 0x6F6E646974696F6E202065786973747300000000000000000000000000000000 PUSH1 0x0 DUP3 ADD MSTORE POP JUMP JUMPDEST PUSH1 0x0 PUSH2 0x2734 PUSH1 0x10 DUP4 PUSH2 0x1FE4 JUMP JUMPDEST SWAP2 POP PUSH2 0x273F DUP3 PUSH2 0x26FE JUMP JUMPDEST PUSH1 0x20 DUP3 ADD SWAP1 POP SWAP2 SWAP1 POP JUMP JUMPDEST PUSH1 0x0 PUSH1 0x20 DUP3 ADD SWAP1 POP DUP2 DUP2 SUB PUSH1 0x0 DUP4 ADD MSTORE PUSH2 0x2763 DUP2 PUSH2 0x2727 JUMP JUMPDEST SWAP1 POP SWAP2 SWAP1 POP JUMP JUMPDEST PUSH32 0x42616C616E6365206973207A65726F0000000000000000000000000000000000 PUSH1 0x0 DUP3 ADD MSTORE POP JUMP JUMPDEST PUSH1 0x0 PUSH2 0x27A0 PUSH1 0xF DUP4 PUSH2 0x1FE4 JUMP JUMPDEST SWAP2 POP PUSH2 0x27AB DUP3 PUSH2 0x276A JUMP JUMPDEST PUSH1 0x20 DUP3 ADD SWAP1 POP SWAP2 SWAP1 POP JUMP JUMPDEST PUSH1 0x0 PUSH1 0x20 DUP3 ADD SWAP1 POP DUP2 DUP2 SUB PUSH1 0x0 DUP4 ADD MSTORE PUSH2 0x27CF DUP2 PUSH2 0x2793 JUMP JUMPDEST SWAP1 POP SWAP2 SWAP1 POP JUMP JUMPDEST PUSH32 0x796F7520617265206E6F74206F776E6572206F662074686973206E616D650000 PUSH1 0x0 DUP3 ADD MSTORE POP JUMP JUMPDEST PUSH1 0x0 PUSH2 0x280C PUSH1 0x1E DUP4 PUSH2 0x1FE4 JUMP JUMPDEST SWAP2 POP PUSH2 0x2817 DUP3 PUSH2 0x27D6 JUMP JUMPDEST PUSH1 0x20 DUP3 ADD SWAP1 POP SWAP2 SWAP1 POP JUMP JUMPDEST PUSH1 0x0 PUSH1 0x20 DUP3 ADD SWAP1 POP DUP2 DUP2 SUB PUSH1 0x0 DUP4 ADD MSTORE PUSH2 0x283B DUP2 PUSH2 0x27FF JUMP JUMPDEST SWAP1 POP SWAP2 SWAP1 POP JUMP JUMPDEST PUSH1 0x0 PUSH2 0x284D DUP3 PUSH2 0x1C29 JUMP JUMPDEST SWAP2 POP PUSH2 0x2858 DUP4 PUSH2 0x1C29 JUMP JUMPDEST SWAP3 POP DUP3 PUSH32 0xFFFFFFFFFFFFFFFFFFFFFFFFFFFFFFFFFFFFFFFFFFFFFFFFFFFFFFFFFFFFFFFF SUB DUP3 GT ISZERO PUSH2 0x288D JUMPI PUSH2 0x288C PUSH2 0x2326 JUMP JUMPDEST JUMPDEST DUP3 DUP3 ADD SWAP1 POP SWAP3 SWAP2 POP POP JUMP INVALID LOG2 PUSH5 0x6970667358 0x22 SLT KECCAK256 0xFC DUP6 SLT EXP SWAP3 0x49 PUSH10 0x32040E71486FDED6B91C 0xDF DUP4 LOG3 PUSH1 0xBB MUL PUSH32 0x87BDB63CC9FACDD364736F6C634300080E003300000000000000000000000000 "
        },
        "methodIdentifiers": {
          "calculateregistrationFee(string)": "8648c36b",
          "checkFrontRunConditions(bytes32)": "801c7232",
          "checkUpkeep(bytes)": "6e04ff0d",
          "condition(bytes32)": "b194a72c",
          "generateCondition(string,bytes32)": "2894d492",
          "getContractBalance()": "6f9fb98a",
          "getOperationalStatus()": "0c982673",
          "interval()": "947a36fb",
          "isNameAvailable(bytes32)": "41f5947b",
          "lastTimeStamp()": "3f3b3b27",
          "lockValue()": "a94ea5cc",
          "nameRecord(bytes32)": "cd1388fa",
          "nameToOwner(uint256)": "f343081f",
          "owner()": "8da5cb5b",
          "performUpkeep(bytes)": "4585e33b",
          "registerName(string,bytes32)": "8225af80",
          "removeName(string)": "6a43aae7",
          "renewalOfName(string)": "f3e11523",
          "resetExpiredNameFromRecord()": "85ec41cf",
          "setOpeartionalStatus(bool)": "f0e55533",
          "setTimeLockPeriod(uint256)": "9303b16f",
          "timeLockPeriod()": "78446bc1",
          "withDrawLockValue(string)": "16b9459f",
          "withdrawAccountBalance()": "e6200dc2"
        }
      }
    }
  }
}