{
  "_format": "hh-sol-artifact-1",
  "contractName": "GenuinoNameRegistry",
  "sourceName": "contracts/GenuinoNameRegistry.sol",
  "abi": [
    {
      "inputs": [
        {
          "internalType": "uint32",
          "name": "_timeLockPeriod",
          "type": "uint32"
        }
      ],
      "stateMutability": "nonpayable",
      "type": "constructor"
    },
    {
      "anonymous": false,
      "inputs": [
        {
          "indexed": true,
          "internalType": "address",
          "name": "caller",
          "type": "address"
        },
        {
          "indexed": false,
          "internalType": "uint256",
          "name": "value",
          "type": "uint256"
        }
      ],
      "name": "BalanceWithdwalByNameHolder",
      "type": "event"
    },
    {
      "anonymous": false,
      "inputs": [
        {
          "indexed": true,
          "internalType": "address",
          "name": "caller",
          "type": "address"
        },
        {
          "indexed": false,
          "internalType": "uint256",
          "name": "value",
          "type": "uint256"
        }
      ],
      "name": "BalanceWithdwalFromAccount",
      "type": "event"
    },
    {
      "anonymous": false,
      "inputs": [
        {
          "indexed": true,
          "internalType": "address",
          "name": "caller",
          "type": "address"
        },
        {
          "indexed": true,
          "internalType": "bytes32",
          "name": "name",
          "type": "bytes32"
        },
        {
          "indexed": false,
          "internalType": "uint256",
          "name": "value",
          "type": "uint256"
        }
      ],
      "name": "NameChanged",
      "type": "event"
    },
    {
      "anonymous": false,
      "inputs": [
        {
          "indexed": true,
          "internalType": "address",
          "name": "caller",
          "type": "address"
        },
        {
          "indexed": false,
          "internalType": "string",
          "name": "name",
          "type": "string"
        },
        {
          "indexed": false,
          "internalType": "uint256",
          "name": "value",
          "type": "uint256"
        }
      ],
      "name": "NameRegistered",
      "type": "event"
    },
    {
      "anonymous": false,
      "inputs": [
        {
          "indexed": true,
          "internalType": "address",
          "name": "caller",
          "type": "address"
        },
        {
          "indexed": true,
          "internalType": "bytes32",
          "name": "name",
          "type": "bytes32"
        }
      ],
      "name": "NameRemoval",
      "type": "event"
    },
    {
      "anonymous": false,
      "inputs": [
        {
          "indexed": true,
          "internalType": "address",
          "name": "caller",
          "type": "address"
        },
        {
          "indexed": true,
          "internalType": "bytes32",
          "name": "name",
          "type": "bytes32"
        }
      ],
      "name": "NameUnregistered",
      "type": "event"
    },
    {
      "anonymous": false,
      "inputs": [
        {
          "indexed": false,
          "internalType": "bool",
          "name": "operationalStatus",
          "type": "bool"
        }
      ],
      "name": "Operational",
      "type": "event"
    },
    {
      "anonymous": false,
      "inputs": [
        {
          "indexed": true,
          "internalType": "bytes32",
          "name": "name",
          "type": "bytes32"
        },
        {
          "indexed": false,
          "internalType": "uint256",
          "name": "value",
          "type": "uint256"
        }
      ],
      "name": "Renewal",
      "type": "event"
    },
    {
      "anonymous": false,
      "inputs": [
        {
          "indexed": false,
          "internalType": "uint256",
          "name": "timeLockPeriod",
          "type": "uint256"
        }
      ],
      "name": "SetTimePeriod",
      "type": "event"
    },
    {
      "stateMutability": "payable",
      "type": "fallback"
    },
    {
      "inputs": [
        {
          "internalType": "string",
          "name": "name",
          "type": "string"
        }
      ],
      "name": "calculateregistrationFee",
      "outputs": [
        {
          "internalType": "uint64",
          "name": "",
          "type": "uint64"
        }
      ],
      "stateMutability": "pure",
      "type": "function"
    },
    {
      "inputs": [
        {
          "internalType": "bytes32",
          "name": "_condition",
          "type": "bytes32"
        }
      ],
      "name": "checkFrontRunConditions",
      "outputs": [],
      "stateMutability": "nonpayable",
      "type": "function"
    },
    {
      "inputs": [
        {
          "internalType": "bytes32",
          "name": "_condition",
          "type": "bytes32"
        }
      ],
      "name": "condition",
      "outputs": [],
      "stateMutability": "nonpayable",
      "type": "function"
    },
    {
      "inputs": [
        {
          "internalType": "string",
          "name": "_name",
          "type": "string"
        },
        {
          "internalType": "bytes32",
          "name": "_key",
          "type": "bytes32"
        }
      ],
      "name": "generateCondition",
      "outputs": [
        {
          "internalType": "bytes32",
          "name": "",
          "type": "bytes32"
        }
      ],
      "stateMutability": "view",
      "type": "function"
    },
    {
      "inputs": [],
      "name": "getContractBalance",
      "outputs": [
        {
          "internalType": "uint256",
          "name": "",
          "type": "uint256"
        }
      ],
      "stateMutability": "view",
      "type": "function"
    },
    {
      "inputs": [],
      "name": "getOperationalStatus",
      "outputs": [
        {
          "internalType": "bool",
          "name": "",
          "type": "bool"
        }
      ],
      "stateMutability": "view",
      "type": "function"
    },
    {
      "inputs": [
        {
          "internalType": "bytes32",
          "name": "_name",
          "type": "bytes32"
        }
      ],
      "name": "isNameAvailable",
      "outputs": [
        {
          "internalType": "address",
          "name": "",
          "type": "address"
        }
      ],
      "stateMutability": "view",
      "type": "function"
    },
    {
      "inputs": [],
      "name": "lockValue",
      "outputs": [
        {
          "internalType": "uint256",
          "name": "",
          "type": "uint256"
        }
      ],
      "stateMutability": "view",
      "type": "function"
    },
    {
      "inputs": [
        {
          "internalType": "bytes32",
          "name": "",
          "type": "bytes32"
        }
      ],
      "name": "nameRecord",
      "outputs": [
        {
          "internalType": "address",
          "name": "ownerOfName",
          "type": "address"
        },
        {
          "internalType": "bytes32",
          "name": "name",
          "type": "bytes32"
        },
        {
          "internalType": "uint256",
          "name": "value",
          "type": "uint256"
        },
        {
          "internalType": "uint256",
          "name": "endPeriod",
          "type": "uint256"
        },
        {
          "internalType": "bool",
          "name": "isLocked",
          "type": "bool"
        }
      ],
      "stateMutability": "view",
      "type": "function"
    },
    {
      "inputs": [
        {
          "internalType": "uint256",
          "name": "",
          "type": "uint256"
        }
      ],
      "name": "nameToOwner",
      "outputs": [
        {
          "internalType": "bytes32",
          "name": "",
          "type": "bytes32"
        }
      ],
      "stateMutability": "view",
      "type": "function"
    },
    {
      "inputs": [],
      "name": "owner",
      "outputs": [
        {
          "internalType": "address",
          "name": "",
          "type": "address"
        }
      ],
      "stateMutability": "view",
      "type": "function"
    },
    {
      "inputs": [
        {
          "internalType": "string",
          "name": "_name",
          "type": "string"
        },
        {
          "internalType": "bytes32",
          "name": "_secretKey",
          "type": "bytes32"
        }
      ],
      "name": "registerName",
      "outputs": [],
      "stateMutability": "payable",
      "type": "function"
    },
    {
      "inputs": [
        {
          "internalType": "string",
          "name": "_name",
          "type": "string"
        }
      ],
      "name": "removeName",
      "outputs": [],
      "stateMutability": "nonpayable",
      "type": "function"
    },
    {
      "inputs": [
        {
          "internalType": "string",
          "name": "_name",
          "type": "string"
        }
      ],
      "name": "renewalOfName",
      "outputs": [],
      "stateMutability": "nonpayable",
      "type": "function"
    },
    {
      "inputs": [],
      "name": "resetExpiredNameFromRecord",
      "outputs": [],
      "stateMutability": "nonpayable",
      "type": "function"
    },
    {
      "inputs": [
        {
          "internalType": "bool",
          "name": "_operationalStatus",
          "type": "bool"
        }
      ],
      "name": "setOpeartionalStatus",
      "outputs": [],
      "stateMutability": "nonpayable",
      "type": "function"
    },
    {
      "inputs": [
        {
          "internalType": "uint256",
          "name": "_timeLockPeriod",
          "type": "uint256"
        }
      ],
      "name": "setTimeLockPeriod",
      "outputs": [],
      "stateMutability": "nonpayable",
      "type": "function"
    },
    {
      "inputs": [],
      "name": "timeLockPeriod",
      "outputs": [
        {
          "internalType": "uint256",
          "name": "",
          "type": "uint256"
        }
      ],
      "stateMutability": "view",
      "type": "function"
    },
    {
      "inputs": [
        {
          "internalType": "string",
          "name": "_name",
          "type": "string"
        }
      ],
      "name": "withDrawLockValue",
      "outputs": [],
      "stateMutability": "payable",
      "type": "function"
    },
    {
      "inputs": [],
      "name": "withdrawAccountBalance",
      "outputs": [],
      "stateMutability": "nonpayable",
      "type": "function"
    },
    {
      "stateMutability": "payable",
      "type": "receive"
    }
  ],
  "bytecode": "0x60806040526729a2241af62c00006001553480156200001d57600080fd5b5060405162002691380380620026918339818101604052810190620000439190620000af565b8063ffffffff1660008190555033600260006101000a81548173ffffffffffffffffffffffffffffffffffffffff021916908373ffffffffffffffffffffffffffffffffffffffff1602179055505062000105565b600081519050620000a981620000eb565b92915050565b600060208284031215620000c257600080fd5b6000620000d28482850162000098565b91505092915050565b600063ffffffff82169050919050565b620000f681620000db565b81146200010257600080fd5b50565b61257c80620001156000396000f3fe6080604052600436106101235760003560e01c80638648c36b116100a0578063cd1388fa11610064578063cd1388fa146103ad578063e6200dc2146103ee578063f0e5553314610405578063f343081f1461042e578063f3e115231461046b5761012a565b80638648c36b146102c85780638da5cb5b146103055780639303b16f14610330578063a94ea5cc14610359578063b194a72c146103845761012a565b80636f9fb98a116100e75780636f9fb98a1461021657806378446bc114610241578063801c72321461026c5780638225af801461029557806385ec41cf146102b15761012a565b80630c9826731461012c57806316b9459f146101575780632894d4921461017357806341f5947b146101b05780636a43aae7146101ed5761012a565b3661012a57005b005b34801561013857600080fd5b50610141610494565b60405161014e9190611d85565b60405180910390f35b610171600480360381019061016c9190611900565b6104ab565b005b34801561017f57600080fd5b5061019a6004803603810190610195919061199d565b610799565b6040516101a79190611da0565b60405180910390f35b3480156101bc57600080fd5b506101d760048036038101906101d291906118d7565b6107d5565b6040516101e49190611d17565b60405180910390f35b3480156101f957600080fd5b50610214600480360381019061020f9190611900565b610815565b005b34801561022257600080fd5b5061022b610a4c565b6040516102389190611f6d565b60405180910390f35b34801561024d57600080fd5b50610256610a54565b6040516102639190611f6d565b60405180910390f35b34801561027857600080fd5b50610293600480360381019061028e91906118d7565b610a5a565b005b6102af60048036038101906102aa9190611945565b610aef565b005b3480156102bd57600080fd5b506102c6610edf565b005b3480156102d457600080fd5b506102ef60048036038101906102ea9190611900565b611192565b6040516102fc9190611f88565b60405180910390f35b34801561031157600080fd5b5061031a6111b2565b6040516103279190611d17565b60405180910390f35b34801561033c57600080fd5b50610357600480360381019061035291906119f1565b6111d8565b005b34801561036557600080fd5b5061036e6112ab565b60405161037b9190611f6d565b60405180910390f35b34801561039057600080fd5b506103ab60048036038101906103a691906118d7565b6112b1565b005b3480156103b957600080fd5b506103d460048036038101906103cf91906118d7565b611340565b6040516103e5959493929190611d32565b60405180910390f35b3480156103fa57600080fd5b506104036113a3565b005b34801561041157600080fd5b5061042c600480360381019061042791906118ae565b61155d565b005b34801561043a57600080fd5b50610455600480360381019061045091906119f1565b611641565b6040516104629190611da0565b60405180910390f35b34801561047757600080fd5b50610492600480360381019061048d9190611900565b611665565b005b6000600260149054906101000a900460ff16905090565b600260149054906101000a900460ff16156104fb576040517f08c379a00000000000000000000000000000000000000000000000000000000081526004016104f290611e2d565b60405180910390fd5b6000828260405161050d929190611ce9565b60405180910390209050600260149054906101000a900460ff1615610567576040517f08c379a000000000000000000000000000000000000000000000000000000000815260040161055e90611f2d565b60405180910390fd5b3373ffffffffffffffffffffffffffffffffffffffff166004600083815260200190815260200160002060000160009054906101000a900473ffffffffffffffffffffffffffffffffffffffff1673ffffffffffffffffffffffffffffffffffffffff161461060b576040517f08c379a000000000000000000000000000000000000000000000000000000000815260040161060290611e6d565b60405180910390fd5b60046000828152602001908152602001600020600301544211610663576040517f08c379a000000000000000000000000000000000000000000000000000000000815260040161065a90611ead565b60405180910390fd5b6004600082815260200190815260200160002060040160009054906101000a900460ff16156106c7576040517f08c379a00000000000000000000000000000000000000000000000000000000081526004016106be90611e0d565b60405180910390fd5b600060046000838152602001908152602001600020600201549050600060046000848152602001908152602001600020600201819055503373ffffffffffffffffffffffffffffffffffffffff166108fc829081150290604051600060405180830381858888f19350505050158015610744573d6000803e3d6000fd5b503373ffffffffffffffffffffffffffffffffffffffff167f5a87beb49578535fddefc2bdf5d1348ff0ca08cbe4f77c80f55ba5ccd561533f8260405161078b9190611f6d565b60405180910390a250505050565b6000828051906020012033836040516020016107b793929190611cac565b60405160208183030381529060405280519060200120905092915050565b60006004600083815260200190815260200160002060000160009054906101000a900473ffffffffffffffffffffffffffffffffffffffff169050919050565b600260009054906101000a900473ffffffffffffffffffffffffffffffffffffffff1673ffffffffffffffffffffffffffffffffffffffff163373ffffffffffffffffffffffffffffffffffffffff16146108a5576040517f08c379a000000000000000000000000000000000000000000000000000000000815260040161089c90611e8d565b60405180910390fd5b600260149054906101000a900460ff16156108f5576040517f08c379a00000000000000000000000000000000000000000000000000000000081526004016108ec90611e2d565b60405180910390fd5b60008282604051610907929190611ce9565b604051809103902090507f200000000000000000000000000000000000000000000000000000000000000060046000838152602001908152602001600020600101819055506000600460008381526020019081526020016000206003018190555060006004600083815260200190815260200160002060000160006101000a81548173ffffffffffffffffffffffffffffffffffffffff021916908373ffffffffffffffffffffffffffffffffffffffff16021790555060006004600083815260200190815260200160002060040160006101000a81548160ff02191690831515021790555060046000828152602001908152602001600020600101543373ffffffffffffffffffffffffffffffffffffffff167fe9a8042f02a1c5770c208431e10c1a87d852f7b2c9f45714ff90fd2c9e7a329360405160405180910390a3505050565b600047905090565b60005481565b42610a8c603c67ffffffffffffffff1660056000858152602001908152602001600020546117a790919063ffffffff16565b1115610a9757600080fd5b42610acb6201518067ffffffffffffffff1660056000858152602001908152602001600020546117a790919063ffffffff16565b11610ad557600080fd5b600560008281526020019081526020016000206000905550565b60008383604051610b01929190611ce9565b60405180910390209050600073ffffffffffffffffffffffffffffffffffffffff16610b2c826107d5565b73ffffffffffffffffffffffffffffffffffffffff1614610b82576040517f08c379a0000000000000000000000000000000000000000000000000000000008152600401610b7990611ecd565b60405180910390fd5b6000610bd285858080601f016020809104026020016040519081016040528093929190818152602001838380828437600081840152601f19601f8201169050808301925050505050505084610799565b9050610bdd81610a5a565b6000610be98686611192565b67ffffffffffffffff1690506000610c0c826001546117a790919063ffffffff16565b905080341015610c51576040517f08c379a0000000000000000000000000000000000000000000000000000000008152600401610c4890611e4d565b60405180910390fd5b600260149054906101000a900460ff1615610ca1576040517f08c379a0000000000000000000000000000000000000000000000000000000008152600401610c9890611e2d565b60405180910390fd5b6000610cb8426000546117a790919063ffffffff16565b90506040518060a001604052803373ffffffffffffffffffffffffffffffffffffffff1681526020018681526020016001548152602001828152602001600115158152506004600087815260200190815260200160002060008201518160000160006101000a81548173ffffffffffffffffffffffffffffffffffffffff021916908373ffffffffffffffffffffffffffffffffffffffff16021790555060208201518160010155604082015181600201556060820151816003015560808201518160040160006101000a81548160ff02191690831515021790555090505060038590806001815401808255809150506001900390600052602060002001600090919091909150553373ffffffffffffffffffffffffffffffffffffffff167fdcc2175a495289b48da3c0c903e6e8fd7bbf9400cc93d7d1b8be780fc5916c668989600154604051610e0c93929190611dbb565b60405180910390a281341115610ed55760003373ffffffffffffffffffffffffffffffffffffffff168334610e4191906120ad565b604051610e4d90611d02565b60006040518083038185875af1925050503d8060008114610e8a576040519150601f19603f3d011682016040523d82523d6000602084013e610e8f565b606091505b5050905080610ed3576040517f08c379a0000000000000000000000000000000000000000000000000000000008152600401610eca90611ded565b60405180910390fd5b505b5050505050505050565b600260009054906101000a900473ffffffffffffffffffffffffffffffffffffffff1673ffffffffffffffffffffffffffffffffffffffff163373ffffffffffffffffffffffffffffffffffffffff1614610f6f576040517f08c379a0000000000000000000000000000000000000000000000000000000008152600401610f6690611e8d565b60405180910390fd5b60005b60038054905081101561118f57426004600060038481548110610fbe577f4e487b7100000000000000000000000000000000000000000000000000000000600052603260045260246000fd5b9060005260206000200154815260200190815260200160002060030154101561117c577f20000000000000000000000000000000000000000000000000000000000000006004600060038481548110611040577f4e487b7100000000000000000000000000000000000000000000000000000000600052603260045260246000fd5b9060005260206000200154815260200190815260200160002060010181905550600060046000600384815481106110a0577f4e487b7100000000000000000000000000000000000000000000000000000000600052603260045260246000fd5b906000526020600020015481526020019081526020016000206003018190555060006004600060038481548110611100577f4e487b7100000000000000000000000000000000000000000000000000000000600052603260045260246000fd5b9060005260206000200154815260200190815260200160002060040160006101000a81548160ff0219169083151502179055506003818154811061116d577f4e487b7100000000000000000000000000000000000000000000000000000000600052603260045260246000fd5b90600052602060002001600090555b808061118790612187565b915050610f72565b50565b6000662386f26fc10000838390506111aa919061206b565b905092915050565b600260009054906101000a900473ffffffffffffffffffffffffffffffffffffffff1681565b600260009054906101000a900473ffffffffffffffffffffffffffffffffffffffff1673ffffffffffffffffffffffffffffffffffffffff163373ffffffffffffffffffffffffffffffffffffffff1614611268576040517f08c379a000000000000000000000000000000000000000000000000000000000815260040161125f90611e8d565b60405180910390fd5b806000819055507f1e3e70f5e6de3b2bc05175c0c8a4970d959049190bc901bc26b807818ebd84f06000546040516112a09190611f6d565b60405180910390a150565b60015481565b426112e56201518067ffffffffffffffff1660056000858152602001908152602001600020546117a790919063ffffffff16565b10611325576040517f08c379a000000000000000000000000000000000000000000000000000000000815260040161131c90611eed565b60405180910390fd5b42600560008381526020019081526020016000208190555050565b60046020528060005260406000206000915090508060000160009054906101000a900473ffffffffffffffffffffffffffffffffffffffff16908060010154908060020154908060030154908060040160009054906101000a900460ff16905085565b600260009054906101000a900473ffffffffffffffffffffffffffffffffffffffff1673ffffffffffffffffffffffffffffffffffffffff163373ffffffffffffffffffffffffffffffffffffffff1614611433576040517f08c379a000000000000000000000000000000000000000000000000000000000815260040161142a90611e8d565b60405180910390fd5b600260149054906101000a900460ff1615611483576040517f08c379a000000000000000000000000000000000000000000000000000000000815260040161147a90611e2d565b60405180910390fd5b600047116114c6576040517f08c379a00000000000000000000000000000000000000000000000000000000081526004016114bd90611f4d565b60405180910390fd5b3373ffffffffffffffffffffffffffffffffffffffff166108fc479081150290604051600060405180830381858888f1935050505015801561150c573d6000803e3d6000fd5b503373ffffffffffffffffffffffffffffffffffffffff167f962f9c43e003b8cd7c9d735bac875cd62df9cd05a5c5c2ea3981adba54a7d093476040516115539190611f6d565b60405180910390a2565b600260009054906101000a900473ffffffffffffffffffffffffffffffffffffffff1673ffffffffffffffffffffffffffffffffffffffff163373ffffffffffffffffffffffffffffffffffffffff16146115ed576040517f08c379a00000000000000000000000000000000000000000000000000000000081526004016115e490611e8d565b60405180910390fd5b80600260146101000a81548160ff0219169083151502179055507f70687fde1b5a9227fa0e9609998e1cc36e9901b7a731cc808a8f137fd30a6ae8816040516116369190611d85565b60405180910390a150565b6003818154811061165157600080fd5b906000526020600020016000915090505481565b60008282604051611677929190611ce9565b604051809103902090503373ffffffffffffffffffffffffffffffffffffffff166004600083815260200190815260200160002060000160009054906101000a900473ffffffffffffffffffffffffffffffffffffffff1673ffffffffffffffffffffffffffffffffffffffff1614611725576040517f08c379a000000000000000000000000000000000000000000000000000000000815260040161171c90611f0d565b60405180910390fd5b60005460046000838152602001908152602001600020600301600082825461174d9190612015565b92505081905550807f5fab56e4692bef0cb846328ab44dc5c82cbeab1f825083d2ab108690af108f2f600460008481526020019081526020016000206003015460405161179a9190611f6d565b60405180910390a2505050565b600081836117b59190612015565b905092915050565b60006117d06117cb84611fc8565b611fa3565b9050828152602081018484840111156117e857600080fd5b6117f3848285612147565b509392505050565b60008135905061180a81612501565b92915050565b60008135905061181f81612518565b92915050565b60008083601f84011261183757600080fd5b8235905067ffffffffffffffff81111561185057600080fd5b60208301915083600182028301111561186857600080fd5b9250929050565b600082601f83011261188057600080fd5b81356118908482602086016117bd565b91505092915050565b6000813590506118a88161252f565b92915050565b6000602082840312156118c057600080fd5b60006118ce848285016117fb565b91505092915050565b6000602082840312156118e957600080fd5b60006118f784828501611810565b91505092915050565b6000806020838503121561191357600080fd5b600083013567ffffffffffffffff81111561192d57600080fd5b61193985828601611825565b92509250509250929050565b60008060006040848603121561195a57600080fd5b600084013567ffffffffffffffff81111561197457600080fd5b61198086828701611825565b9350935050602061199386828701611810565b9150509250925092565b600080604083850312156119b057600080fd5b600083013567ffffffffffffffff8111156119ca57600080fd5b6119d68582860161186f565b92505060206119e785828601611810565b9150509250929050565b600060208284031215611a0357600080fd5b6000611a1184828501611899565b91505092915050565b611a23816120e1565b82525050565b611a3a611a35826120e1565b6121d0565b82525050565b611a49816120f3565b82525050565b611a58816120ff565b82525050565b611a6f611a6a826120ff565b6121e2565b82525050565b6000611a818385611ff9565b9350611a8e838584612147565b82840190509392505050565b6000611aa68385612004565b9350611ab3838584612147565b611abc8361225c565b840190509392505050565b6000611ad4601683612004565b9150611adf8261227a565b602082019050919050565b6000611af7602883612004565b9150611b02826122a3565b604082019050919050565b6000611b1a601183612004565b9150611b25826122f2565b602082019050919050565b6000611b3d602183612004565b9150611b488261231b565b604082019050919050565b6000611b60601783612004565b9150611b6b8261236a565b602082019050919050565b6000611b83602783612004565b9150611b8e82612393565b604082019050919050565b6000611ba6600983612004565b9150611bb1826123e2565b602082019050919050565b6000611bc9602c83612004565b9150611bd48261240b565b604082019050919050565b6000611bec600083611ff9565b9150611bf78261245a565b600082019050919050565b6000611c0f601083612004565b9150611c1a8261245d565b602082019050919050565b6000611c32601e83612004565b9150611c3d82612486565b602082019050919050565b6000611c55601283612004565b9150611c60826124af565b602082019050919050565b6000611c78600f83612004565b9150611c83826124d8565b602082019050919050565b611c9781612129565b82525050565b611ca681612133565b82525050565b6000611cb88286611a5e565b602082019150611cc88285611a29565b601482019150611cd88284611a5e565b602082019150819050949350505050565b6000611cf6828486611a75565b91508190509392505050565b6000611d0d82611bdf565b9150819050919050565b6000602082019050611d2c6000830184611a1a565b92915050565b600060a082019050611d476000830188611a1a565b611d546020830187611a4f565b611d616040830186611c8e565b611d6e6060830185611c8e565b611d7b6080830184611a40565b9695505050505050565b6000602082019050611d9a6000830184611a40565b92915050565b6000602082019050611db56000830184611a4f565b92915050565b60006040820190508181036000830152611dd6818587611a9a565b9050611de56020830184611c8e565b949350505050565b60006020820190508181036000830152611e0681611ac7565b9050919050565b60006020820190508181036000830152611e2681611aea565b9050919050565b60006020820190508181036000830152611e4681611b0d565b9050919050565b60006020820190508181036000830152611e6681611b30565b9050919050565b60006020820190508181036000830152611e8681611b53565b9050919050565b60006020820190508181036000830152611ea681611b76565b9050919050565b60006020820190508181036000830152611ec681611b99565b9050919050565b60006020820190508181036000830152611ee681611bbc565b9050919050565b60006020820190508181036000830152611f0681611c02565b9050919050565b60006020820190508181036000830152611f2681611c25565b9050919050565b60006020820190508181036000830152611f4681611c48565b9050919050565b60006020820190508181036000830152611f6681611c6b565b9050919050565b6000602082019050611f826000830184611c8e565b92915050565b6000602082019050611f9d6000830184611c9d565b92915050565b6000611fad611fbe565b9050611fb98282612156565b919050565b6000604051905090565b600067ffffffffffffffff821115611fe357611fe261222d565b5b611fec8261225c565b9050602081019050919050565b600081905092915050565b600082825260208201905092915050565b600061202082612129565b915061202b83612129565b9250827fffffffffffffffffffffffffffffffffffffffffffffffffffffffffffffffff038211156120605761205f6121fe565b5b828201905092915050565b600061207682612133565b915061208183612133565b92508167ffffffffffffffff04831182151516156120a2576120a16121fe565b5b828202905092915050565b60006120b882612129565b91506120c383612129565b9250828210156120d6576120d56121fe565b5b828203905092915050565b60006120ec82612109565b9050919050565b60008115159050919050565b6000819050919050565b600073ffffffffffffffffffffffffffffffffffffffff82169050919050565b6000819050919050565b600067ffffffffffffffff82169050919050565b82818337600083830152505050565b61215f8261225c565b810181811067ffffffffffffffff8211171561217e5761217d61222d565b5b80604052505050565b600061219282612129565b91507fffffffffffffffffffffffffffffffffffffffffffffffffffffffffffffffff8214156121c5576121c46121fe565b5b600182019050919050565b60006121db826121ec565b9050919050565b6000819050919050565b60006121f78261226d565b9050919050565b7f4e487b7100000000000000000000000000000000000000000000000000000000600052601160045260246000fd5b7f4e487b7100000000000000000000000000000000000000000000000000000000600052604160045260246000fd5b6000601f19601f8301169050919050565b60008160601b9050919050565b7f726566756e64206e6f7420737563636365737366756c00000000000000000000600082015250565b7f4e616d65207365727669636520696e20616374696f6e2c20776169742074696c60008201527f6c20657870697265000000000000000000000000000000000000000000000000602082015250565b7f4163636f756e74206973206c6f636b6564000000000000000000000000000000600082015250565b7f4e6f7420656e6f7567682076616c756520746f207265676973746572206e616d60008201527f6500000000000000000000000000000000000000000000000000000000000000602082015250565b7f4f6e6c79206f776e65722063616e207769746864726177000000000000000000600082015250565b7f43616c6c6572206973206e6f74206f776e6572206f662072656769737472792060008201527f7365727669636500000000000000000000000000000000000000000000000000602082015250565b7f546f6f206561726c790000000000000000000000000000000000000000000000600082015250565b7f6e616d65206973206e6f7420617661696c61626c652c2074727920776974682060008201527f616e6f74686572206e616d650000000000000000000000000000000000000000602082015250565b50565b7f6f6e646974696f6e202065786973747300000000000000000000000000000000600082015250565b7f796f7520617265206e6f74206f776e6572206f662074686973206e616d650000600082015250565b7f436f6e7472616374206973206c6f636b65640000000000000000000000000000600082015250565b7f42616c616e6365206973207a65726f0000000000000000000000000000000000600082015250565b61250a816120f3565b811461251557600080fd5b50565b612521816120ff565b811461252c57600080fd5b50565b61253881612129565b811461254357600080fd5b5056fea2646970667358221220d7398feb6f1555fb75ff600517925cf790e96f0b61e15dc1217f2b724383552864736f6c63430008040033",
  "linkReferences": {},
  "deployedLinkReferences": {}
}