{
  "_format": "hh-sol-artifact-1",
  "contractName": "GenuinoNameRegistry",
  "sourceName": "contracts/GenuinoNameRegistry.sol",
  "abi": [
    {
      "inputs": [
        {
          "internalType": "uint32",
          "name": "_timeLockPeriod",
          "type": "uint32"
        }
      ],
      "stateMutability": "nonpayable",
      "type": "constructor"
    },
    {
      "anonymous": false,
      "inputs": [
        {
          "indexed": true,
          "internalType": "address",
          "name": "caller",
          "type": "address"
        },
        {
          "indexed": false,
          "internalType": "uint256",
          "name": "value",
          "type": "uint256"
        }
      ],
      "name": "BalanceWithdwalByNameHolder",
      "type": "event"
    },
    {
      "anonymous": false,
      "inputs": [
        {
          "indexed": true,
          "internalType": "address",
          "name": "caller",
          "type": "address"
        },
        {
          "indexed": false,
          "internalType": "uint256",
          "name": "value",
          "type": "uint256"
        }
      ],
      "name": "BalanceWithdwalFromAccount",
      "type": "event"
    },
    {
      "anonymous": false,
      "inputs": [
        {
          "indexed": true,
          "internalType": "address",
          "name": "caller",
          "type": "address"
        },
        {
          "indexed": true,
          "internalType": "bytes32",
          "name": "name",
          "type": "bytes32"
        },
        {
          "indexed": false,
          "internalType": "uint256",
          "name": "value",
          "type": "uint256"
        }
      ],
      "name": "NameChanged",
      "type": "event"
    },
    {
      "anonymous": false,
      "inputs": [
        {
          "indexed": true,
          "internalType": "address",
          "name": "caller",
          "type": "address"
        },
        {
          "indexed": true,
          "internalType": "bytes32",
          "name": "name",
          "type": "bytes32"
        },
        {
          "indexed": false,
          "internalType": "uint256",
          "name": "value",
          "type": "uint256"
        }
      ],
      "name": "NameRegistered",
      "type": "event"
    },
    {
      "anonymous": false,
      "inputs": [
        {
          "indexed": true,
          "internalType": "address",
          "name": "caller",
          "type": "address"
        },
        {
          "indexed": true,
          "internalType": "bytes32",
          "name": "name",
          "type": "bytes32"
        }
      ],
      "name": "NameRemoval",
      "type": "event"
    },
    {
      "anonymous": false,
      "inputs": [
        {
          "indexed": true,
          "internalType": "address",
          "name": "caller",
          "type": "address"
        },
        {
          "indexed": true,
          "internalType": "bytes32",
          "name": "name",
          "type": "bytes32"
        }
      ],
      "name": "NameUnregistered",
      "type": "event"
    },
    {
      "anonymous": false,
      "inputs": [
        {
          "indexed": false,
          "internalType": "bool",
          "name": "operationalStatus",
          "type": "bool"
        }
      ],
      "name": "Operational",
      "type": "event"
    },
    {
      "anonymous": false,
      "inputs": [
        {
          "indexed": true,
          "internalType": "bytes32",
          "name": "name",
          "type": "bytes32"
        },
        {
          "indexed": false,
          "internalType": "uint256",
          "name": "value",
          "type": "uint256"
        }
      ],
      "name": "Renewal",
      "type": "event"
    },
    {
      "anonymous": false,
      "inputs": [
        {
          "indexed": false,
          "internalType": "uint256",
          "name": "timeLockPeriod",
          "type": "uint256"
        }
      ],
      "name": "SetTimePeriod",
      "type": "event"
    },
    {
      "stateMutability": "payable",
      "type": "fallback"
    },
    {
      "inputs": [
        {
          "internalType": "string",
          "name": "name",
          "type": "string"
        }
      ],
      "name": "calculateregistrationFee",
      "outputs": [
        {
          "internalType": "uint64",
          "name": "",
          "type": "uint64"
        }
      ],
      "stateMutability": "pure",
      "type": "function"
    },
    {
      "inputs": [
        {
          "internalType": "bytes32",
          "name": "_condition",
          "type": "bytes32"
        }
      ],
      "name": "checkFrontRunConditions",
      "outputs": [],
      "stateMutability": "nonpayable",
      "type": "function"
    },
    {
      "inputs": [
        {
          "internalType": "bytes32",
          "name": "_condition",
          "type": "bytes32"
        }
      ],
      "name": "condition",
      "outputs": [],
      "stateMutability": "nonpayable",
      "type": "function"
    },
    {
      "inputs": [
        {
          "internalType": "string",
          "name": "_name",
          "type": "string"
        },
        {
          "internalType": "bytes32",
          "name": "_key",
          "type": "bytes32"
        }
      ],
      "name": "generateCondition",
      "outputs": [
        {
          "internalType": "bytes32",
          "name": "",
          "type": "bytes32"
        }
      ],
      "stateMutability": "view",
      "type": "function"
    },
    {
      "inputs": [],
      "name": "getContractBalance",
      "outputs": [
        {
          "internalType": "uint256",
          "name": "",
          "type": "uint256"
        }
      ],
      "stateMutability": "view",
      "type": "function"
    },
    {
      "inputs": [],
      "name": "getOperationalStatus",
      "outputs": [
        {
          "internalType": "bool",
          "name": "",
          "type": "bool"
        }
      ],
      "stateMutability": "view",
      "type": "function"
    },
    {
      "inputs": [],
      "name": "getTotalRegisteredName",
      "outputs": [
        {
          "internalType": "uint256",
          "name": "",
          "type": "uint256"
        }
      ],
      "stateMutability": "view",
      "type": "function"
    },
    {
      "inputs": [
        {
          "internalType": "bytes32",
          "name": "_name",
          "type": "bytes32"
        }
      ],
      "name": "isNameAvailable",
      "outputs": [
        {
          "internalType": "address",
          "name": "",
          "type": "address"
        }
      ],
      "stateMutability": "view",
      "type": "function"
    },
    {
      "inputs": [],
      "name": "lockValue",
      "outputs": [
        {
          "internalType": "uint256",
          "name": "",
          "type": "uint256"
        }
      ],
      "stateMutability": "view",
      "type": "function"
    },
    {
      "inputs": [
        {
          "internalType": "bytes32",
          "name": "",
          "type": "bytes32"
        }
      ],
      "name": "nameRecord",
      "outputs": [
        {
          "internalType": "address",
          "name": "ownerOfName",
          "type": "address"
        },
        {
          "internalType": "bytes32",
          "name": "name",
          "type": "bytes32"
        },
        {
          "internalType": "uint256",
          "name": "value",
          "type": "uint256"
        },
        {
          "internalType": "uint256",
          "name": "endPeriod",
          "type": "uint256"
        },
        {
          "internalType": "bool",
          "name": "isLocked",
          "type": "bool"
        }
      ],
      "stateMutability": "view",
      "type": "function"
    },
    {
      "inputs": [
        {
          "internalType": "uint256",
          "name": "",
          "type": "uint256"
        }
      ],
      "name": "nameToOwner",
      "outputs": [
        {
          "internalType": "bytes32",
          "name": "",
          "type": "bytes32"
        }
      ],
      "stateMutability": "view",
      "type": "function"
    },
    {
      "inputs": [],
      "name": "owner",
      "outputs": [
        {
          "internalType": "address",
          "name": "",
          "type": "address"
        }
      ],
      "stateMutability": "view",
      "type": "function"
    },
    {
      "inputs": [
        {
          "internalType": "string",
          "name": "_name",
          "type": "string"
        },
        {
          "internalType": "bytes32",
          "name": "_secretKey",
          "type": "bytes32"
        }
      ],
      "name": "registerName",
      "outputs": [],
      "stateMutability": "payable",
      "type": "function"
    },
    {
      "inputs": [
        {
          "internalType": "string",
          "name": "_name",
          "type": "string"
        }
      ],
      "name": "removeName",
      "outputs": [],
      "stateMutability": "nonpayable",
      "type": "function"
    },
    {
      "inputs": [
        {
          "internalType": "string",
          "name": "_name",
          "type": "string"
        }
      ],
      "name": "renewalOfName",
      "outputs": [],
      "stateMutability": "nonpayable",
      "type": "function"
    },
    {
      "inputs": [],
      "name": "resetExpiredNameFromRecord",
      "outputs": [],
      "stateMutability": "nonpayable",
      "type": "function"
    },
    {
      "inputs": [
        {
          "internalType": "bool",
          "name": "_operationalStatus",
          "type": "bool"
        }
      ],
      "name": "setOpeartionalStatus",
      "outputs": [],
      "stateMutability": "nonpayable",
      "type": "function"
    },
    {
      "inputs": [
        {
          "internalType": "uint256",
          "name": "_timeLockPeriod",
          "type": "uint256"
        }
      ],
      "name": "setTimeLockPeriod",
      "outputs": [],
      "stateMutability": "nonpayable",
      "type": "function"
    },
    {
      "inputs": [],
      "name": "timeLockPeriod",
      "outputs": [
        {
          "internalType": "uint256",
          "name": "",
          "type": "uint256"
        }
      ],
      "stateMutability": "view",
      "type": "function"
    },
    {
      "inputs": [
        {
          "internalType": "string",
          "name": "_name",
          "type": "string"
        }
      ],
      "name": "withDrawLockValue",
      "outputs": [],
      "stateMutability": "payable",
      "type": "function"
    },
    {
      "inputs": [],
      "name": "withdrawAccountBalance",
      "outputs": [],
      "stateMutability": "nonpayable",
      "type": "function"
    },
    {
      "stateMutability": "payable",
      "type": "receive"
    }
  ],
  "bytecode": "0x608060405262093a806000556729a2241af62c000060015534801561002357600080fd5b5060405161150638038061150683398101604081905261004291610069565b63ffffffff16600055600380546001600160a81b0319163360ff60a01b1916179055610096565b60006020828403121561007b57600080fd5b815163ffffffff8116811461008f57600080fd5b9392505050565b611461806100a56000396000f3fe6080604052600436106101225760003560e01c80638648c36b116100a5578063cd1388fa1161006c578063cd1388fa14610329578063e6200dc2146103b4578063e7942d9b146103c9578063f0e55533146103de578063f343081f146103fe578063f3e115231461041e57005b80638648c36b1461027a5780638da5cb5b146102b35780639303b16f146102d3578063a94ea5cc146102f3578063b194a72c1461030957005b80636f9fb98a116100e95780636f9fb98a1461020957806378446bc11461021c578063801c7232146102325780638225af801461025257806385ec41cf1461026557005b80630c9826731461012b57806316b9459f1461015a5780632894d4921461016d57806341f5947b1461019b5780636a43aae7146101e957005b3661012957005b005b34801561013757600080fd5b50600354600160a01b900460ff1660405190151581526020015b60405180910390f35b61012961016836600461115a565b61043e565b34801561017957600080fd5b5061018d6101883660046111b2565b610684565b604051908152602001610151565b3480156101a757600080fd5b506101d16101b6366004611267565b6000908152600560205260409020546001600160a01b031690565b6040516001600160a01b039091168152602001610151565b3480156101f557600080fd5b5061012961020436600461115a565b6106e3565b34801561021557600080fd5b504761018d565b34801561022857600080fd5b5061018d60005481565b34801561023e57600080fd5b5061012961024d366004611267565b6107e4565b610129610260366004611280565b610844565b34801561027157600080fd5b50610129610bb2565b34801561028657600080fd5b5061029a61029536600461115a565b610d2e565b60405167ffffffffffffffff9091168152602001610151565b3480156102bf57600080fd5b506003546101d1906001600160a01b031681565b3480156102df57600080fd5b506101296102ee366004611267565b610d48565b3480156102ff57600080fd5b5061018d60015481565b34801561031557600080fd5b50610129610324366004611267565b610dae565b34801561033557600080fd5b50610380610344366004611267565b600560205260009081526040902080546001820154600283015460038401546004909401546001600160a01b0390931693919290919060ff1685565b604080516001600160a01b03909616865260208601949094529284019190915260608301521515608082015260a001610151565b3480156103c057600080fd5b50610129610e1f565b3480156103d557600080fd5b5060025461018d565b3480156103ea57600080fd5b506101296103f93660046112cc565b610f19565b34801561040a57600080fd5b5061018d610419366004611267565b610f90565b34801561042a57600080fd5b5061012961043936600461115a565b610fb1565b600354600160a01b900460ff16156104715760405162461bcd60e51b8152600401610468906112ee565b60405180910390fd5b60008282604051610483929190611319565b604051908190039020600354909150600160a01b900460ff16156104de5760405162461bcd60e51b815260206004820152601260248201527110dbdb9d1c9858dd081a5cc81b1bd8dad95960721b6044820152606401610468565b6000818152600560205260409020546001600160a01b031633146105445760405162461bcd60e51b815260206004820152601760248201527f4f6e6c79206f776e65722063616e2077697468647261770000000000000000006044820152606401610468565b60008181526005602052604090206003015442116105905760405162461bcd60e51b8152602060048201526009602482015268546f6f206561726c7960b81b6044820152606401610468565b60008181526005602052604090206004015460ff16156106035760405162461bcd60e51b815260206004820152602860248201527f4e616d65207365727669636520696e20616374696f6e2c20776169742074696c6044820152676c2065787069726560c01b6064820152608401610468565b60008181526005602052604080822060020180549083905590519091339183156108fc0291849190818181858888f19350505050158015610648573d6000803e3d6000fd5b5060405181815233907f5a87beb49578535fddefc2bdf5d1348ff0ca08cbe4f77c80f55ba5ccd561533f9060200160405180910390a250505050565b6000828051906020012033836040516020016106c59392919092835260609190911b6bffffffffffffffffffffffff19166020830152603482015260540190565b60405160208183030381529060405280519060200120905092915050565b6003546001600160a01b0316331461070d5760405162461bcd60e51b815260040161046890611329565b600354600160a01b900460ff16156107375760405162461bcd60e51b8152600401610468906112ee565b60008282604051610749929190611319565b604080519182900390912060008181526005602052918220600160fd1b60018201556003810183905580546001600160a01b0319168155600401805460ff1916905560028054919350909161079d83611386565b9091555050600081815260056020526040808220600101549051909133917fe9a8042f02a1c5770c208431e10c1a87d852f7b2c9f45714ff90fd2c9e7a32939190a3505050565b600081815260066020526040902054429061080090603c611105565b111561080b57600080fd5b60008181526006602052604090205442906108299062015180611105565b1161083357600080fd5b600090815260066020526040812055565b60008383604051610856929190611319565b60405190819003902090506000610882826000908152600560205260409020546001600160a01b031690565b6001600160a01b0316146108e75760405162461bcd60e51b815260206004820152602660248201527f6e616d65206973206e6f7420617661696c61626c6520666f72207265676973746044820152653930ba34b7b760d11b6064820152608401610468565b600061092a85858080601f016020809104026020016040519081016040528093929190818152602001838380828437600092019190915250879250610684915050565b9050610935816107e4565b60006109418686610d2e565b67ffffffffffffffff16905060006109648260015461110590919063ffffffff16565b9050803410156109c05760405162461bcd60e51b815260206004820152602160248201527f4e6f7420656e6f7567682076616c756520746f207265676973746572206e616d6044820152606560f81b6064820152608401610468565b600354600160a01b900460ff16156109ea5760405162461bcd60e51b8152600401610468906112ee565b600080546109f89042611105565b6040805160a081018252338152602080820189815260018054848601908152606085018781526080860183815260008e81526005909652968520955186546001600160a01b0319166001600160a01b03909116178655925185830155516002808601919091559151600385015593516004938401805460ff1916911515919091179055825493840183559181527f8a35acfbc15ff81a39ae7d344fd709f28e8600b4aa8c65c6b64bfe7fe36bd19b909201889055805492935090610abb8361139d565b919050555084336001600160a01b03167fe6a5d01fa9329c4d517e4311306e601e121d5cf6f4b214a4986bdd8714002e32600154604051610afe91815260200190565b60405180910390a381341115610ba857600033610b1b84346113b6565b604051600081818185875af1925050503d8060008114610b57576040519150601f19603f3d011682016040523d82523d6000602084013e610b5c565b606091505b5050905080610ba65760405162461bcd60e51b81526020600482015260166024820152751c99599d5b99081b9bdd081cdd58d8d8d95cdcd99d5b60521b6044820152606401610468565b505b5050505050505050565b6003546001600160a01b03163314610bdc5760405162461bcd60e51b815260040161046890611329565b60005b600454811015610d2b57426005600060048481548110610c0157610c016113cd565b90600052602060002001548152602001908152602001600020600301541015610d1957600160fd1b6005600060048481548110610c4057610c406113cd565b906000526020600020015481526020019081526020016000206001018190555060006005600060048481548110610c7957610c796113cd565b906000526020600020015481526020019081526020016000206003018190555060006005600060048481548110610cb257610cb26113cd565b9060005260206000200154815260200190815260200160002060040160006101000a81548160ff02191690831515021790555060048181548110610cf857610cf86113cd565b600091825260208220018190556002805491610d1383611386565b91905055505b80610d238161139d565b915050610bdf565b50565b6000610d4182662386f26fc100006113e3565b9392505050565b6003546001600160a01b03163314610d725760405162461bcd60e51b815260040161046890611329565b60008190556040518181527f1e3e70f5e6de3b2bc05175c0c8a4970d959049190bc901bc26b807818ebd84f0906020015b60405180910390a150565b6000818152600660205260409020544290610dcc9062015180611105565b10610e0c5760405162461bcd60e51b815260206004820152601060248201526f6f6e646974696f6e202065786973747360801b6044820152606401610468565b6000908152600660205260409020429055565b6003546001600160a01b03163314610e495760405162461bcd60e51b815260040161046890611329565b600354600160a01b900460ff1615610e735760405162461bcd60e51b8152600401610468906112ee565b60004711610eb55760405162461bcd60e51b815260206004820152600f60248201526e42616c616e6365206973207a65726f60881b6044820152606401610468565b60405133904780156108fc02916000818181858888f19350505050158015610ee1573d6000803e3d6000fd5b5060405147815233907f962f9c43e003b8cd7c9d735bac875cd62df9cd05a5c5c2ea3981adba54a7d0939060200160405180910390a2565b6003546001600160a01b03163314610f435760405162461bcd60e51b815260040161046890611329565b60038054821515600160a01b0260ff60a01b199091161790556040517f70687fde1b5a9227fa0e9609998e1cc36e9901b7a731cc808a8f137fd30a6ae890610da390831515815260200190565b60048181548110610fa057600080fd5b600091825260209091200154905081565b60008282604051610fc3929190611319565b60408051918290039091206000818152600560205291909120549091506001600160a01b031633146110375760405162461bcd60e51b815260206004820152601e60248201527f796f7520617265206e6f74206f776e6572206f662074686973206e616d6500006044820152606401610468565b60008181526005602052604090206003015442106110895760405162461bcd60e51b815260206004820152600f60248201526e13985b59481a5cc8195e1c1a5c9959608a1b6044820152606401610468565b600080548282526005602052604082206003018054919290916110ad908490611413565b90915550506000818152600560205260409081902060030154905182917f5fab56e4692bef0cb846328ab44dc5c82cbeab1f825083d2ab108690af108f2f916110f891815260200190565b60405180910390a2505050565b6000610d418284611413565b60008083601f84011261112357600080fd5b50813567ffffffffffffffff81111561113b57600080fd5b60208301915083602082850101111561115357600080fd5b9250929050565b6000806020838503121561116d57600080fd5b823567ffffffffffffffff81111561118457600080fd5b61119085828601611111565b90969095509350505050565b634e487b7160e01b600052604160045260246000fd5b600080604083850312156111c557600080fd5b823567ffffffffffffffff808211156111dd57600080fd5b818501915085601f8301126111f157600080fd5b8135818111156112035761120361119c565b604051601f8201601f19908116603f0116810190838211818310171561122b5761122b61119c565b8160405282815288602084870101111561124457600080fd5b826020860160208301376000602093820184015298969091013596505050505050565b60006020828403121561127957600080fd5b5035919050565b60008060006040848603121561129557600080fd5b833567ffffffffffffffff8111156112ac57600080fd5b6112b886828701611111565b909790965060209590950135949350505050565b6000602082840312156112de57600080fd5b81358015158114610d4157600080fd5b6020808252601190820152701058d8dbdd5b9d081a5cc81b1bd8dad959607a1b604082015260600190565b8183823760009101908152919050565b60208082526027908201527f43616c6c6572206973206e6f74206f776e6572206f66207265676973747279206040820152667365727669636560c81b606082015260800190565b634e487b7160e01b600052601160045260246000fd5b60008161139557611395611370565b506000190190565b6000600182016113af576113af611370565b5060010190565b6000828210156113c8576113c8611370565b500390565b634e487b7160e01b600052603260045260246000fd5b600067ffffffffffffffff8083168185168183048111821515161561140a5761140a611370565b02949350505050565b6000821982111561142657611426611370565b50019056fea2646970667358221220ccc3b31108f426789c7737692072912155a0a5eab062e0523b139cf2d4e8e16364736f6c634300080e0033",
  "linkReferences": {},
  "deployedLinkReferences": {}
}